{
  "contractName": "TokenStaker",
  "abi": [
    {
      "inputs": [
        {
          "internalType": "address",
          "name": "tokenAddress",
          "type": "address"
        },
        {
          "internalType": "string",
          "name": "name",
          "type": "string"
        },
        {
          "internalType": "string",
          "name": "symbol",
          "type": "string"
        }
      ],
      "stateMutability": "nonpayable",
      "type": "constructor"
    },
    {
      "anonymous": false,
      "inputs": [
        {
          "indexed": false,
          "internalType": "address",
          "name": "user",
          "type": "address"
        },
        {
          "indexed": false,
          "internalType": "uint256",
          "name": "amount",
          "type": "uint256"
        }
      ],
      "name": "AddStakedTokens",
      "type": "event"
    },
    {
      "anonymous": false,
      "inputs": [
        {
          "indexed": true,
          "internalType": "address",
          "name": "owner",
          "type": "address"
        },
        {
          "indexed": true,
          "internalType": "address",
          "name": "approved",
          "type": "address"
        },
        {
          "indexed": true,
          "internalType": "uint256",
          "name": "tokenId",
          "type": "uint256"
        }
      ],
      "name": "Approval",
      "type": "event"
    },
    {
      "anonymous": false,
      "inputs": [
        {
          "indexed": true,
          "internalType": "address",
          "name": "owner",
          "type": "address"
        },
        {
          "indexed": true,
          "internalType": "address",
          "name": "operator",
          "type": "address"
        },
        {
          "indexed": false,
          "internalType": "bool",
          "name": "approved",
          "type": "bool"
        }
      ],
      "name": "ApprovalForAll",
      "type": "event"
    },
    {
      "anonymous": false,
      "inputs": [
        {
          "indexed": false,
          "internalType": "address",
          "name": "user",
          "type": "address"
        },
        {
          "indexed": false,
          "internalType": "uint256",
          "name": "amount",
          "type": "uint256"
        },
        {
          "indexed": false,
          "internalType": "uint256",
          "name": "duration",
          "type": "uint256"
        }
      ],
      "name": "MintedReward",
      "type": "event"
    },
    {
      "anonymous": false,
      "inputs": [
        {
          "indexed": false,
          "internalType": "address",
          "name": "user",
          "type": "address"
        },
        {
          "indexed": false,
          "internalType": "uint256",
          "name": "amount",
          "type": "uint256"
        }
      ],
      "name": "RemoveStakedTokens",
      "type": "event"
    },
    {
      "anonymous": false,
      "inputs": [
        {
          "indexed": true,
          "internalType": "address",
          "name": "from",
          "type": "address"
        },
        {
          "indexed": true,
          "internalType": "address",
          "name": "to",
          "type": "address"
        },
        {
          "indexed": true,
          "internalType": "uint256",
          "name": "tokenId",
          "type": "uint256"
        }
      ],
      "name": "Transfer",
      "type": "event"
    },
    {
      "inputs": [
        {
          "internalType": "address",
          "name": "to",
          "type": "address"
        },
        {
          "internalType": "uint256",
          "name": "tokenId",
          "type": "uint256"
        }
      ],
      "name": "approve",
      "outputs": [],
      "stateMutability": "nonpayable",
      "type": "function"
    },
    {
      "inputs": [
        {
          "internalType": "address",
          "name": "owner",
          "type": "address"
        }
      ],
      "name": "balanceOf",
      "outputs": [
        {
          "internalType": "uint256",
          "name": "",
          "type": "uint256"
        }
      ],
      "stateMutability": "view",
      "type": "function"
    },
    {
      "inputs": [],
      "name": "baseURI",
      "outputs": [
        {
          "internalType": "string",
          "name": "",
          "type": "string"
        }
      ],
      "stateMutability": "view",
      "type": "function"
    },
    {
      "inputs": [
        {
          "internalType": "uint256",
          "name": "tokenId",
          "type": "uint256"
        }
      ],
      "name": "burn",
      "outputs": [],
      "stateMutability": "nonpayable",
      "type": "function"
    },
    {
      "inputs": [
        {
          "internalType": "uint256",
          "name": "tokenId",
          "type": "uint256"
        }
      ],
      "name": "getApproved",
      "outputs": [
        {
          "internalType": "address",
          "name": "",
          "type": "address"
        }
      ],
      "stateMutability": "view",
      "type": "function"
    },
    {
      "inputs": [
        {
          "internalType": "address",
          "name": "owner",
          "type": "address"
        },
        {
          "internalType": "address",
          "name": "operator",
          "type": "address"
        }
      ],
      "name": "isApprovedForAll",
      "outputs": [
        {
          "internalType": "bool",
          "name": "",
          "type": "bool"
        }
      ],
      "stateMutability": "view",
      "type": "function"
    },
    {
      "inputs": [],
      "name": "name",
      "outputs": [
        {
          "internalType": "string",
          "name": "",
          "type": "string"
        }
      ],
      "stateMutability": "view",
      "type": "function"
    },
    {
      "inputs": [
        {
          "internalType": "uint256",
          "name": "tokenId",
          "type": "uint256"
        }
      ],
      "name": "ownerOf",
      "outputs": [
        {
          "internalType": "address",
          "name": "",
          "type": "address"
        }
      ],
      "stateMutability": "view",
      "type": "function"
    },
    {
      "inputs": [
        {
          "internalType": "uint256",
          "name": "",
          "type": "uint256"
        }
      ],
      "name": "rewardRecords",
      "outputs": [
        {
          "internalType": "address",
          "name": "owner",
          "type": "address"
        },
        {
          "internalType": "uint256",
          "name": "amount",
          "type": "uint256"
        },
        {
          "internalType": "uint256",
          "name": "blockDuration",
          "type": "uint256"
        }
      ],
      "stateMutability": "view",
      "type": "function"
    },
    {
      "inputs": [
        {
          "internalType": "address",
          "name": "from",
          "type": "address"
        },
        {
          "internalType": "address",
          "name": "to",
          "type": "address"
        },
        {
          "internalType": "uint256",
          "name": "tokenId",
          "type": "uint256"
        }
      ],
      "name": "safeTransferFrom",
      "outputs": [],
      "stateMutability": "nonpayable",
      "type": "function"
    },
    {
      "inputs": [
        {
          "internalType": "address",
          "name": "from",
          "type": "address"
        },
        {
          "internalType": "address",
          "name": "to",
          "type": "address"
        },
        {
          "internalType": "uint256",
          "name": "tokenId",
          "type": "uint256"
        },
        {
          "internalType": "bytes",
          "name": "_data",
          "type": "bytes"
        }
      ],
      "name": "safeTransferFrom",
      "outputs": [],
      "stateMutability": "nonpayable",
      "type": "function"
    },
    {
      "inputs": [
        {
          "internalType": "address",
          "name": "operator",
          "type": "address"
        },
        {
          "internalType": "bool",
          "name": "approved",
          "type": "bool"
        }
      ],
      "name": "setApprovalForAll",
      "outputs": [],
      "stateMutability": "nonpayable",
      "type": "function"
    },
    {
      "inputs": [
        {
          "internalType": "address",
          "name": "",
          "type": "address"
        }
      ],
      "name": "stakeRecords",
      "outputs": [
        {
          "internalType": "uint256",
          "name": "amount",
          "type": "uint256"
        },
        {
          "internalType": "uint256",
          "name": "startBlock",
          "type": "uint256"
        }
      ],
      "stateMutability": "view",
      "type": "function"
    },
    {
      "inputs": [
        {
          "internalType": "bytes4",
          "name": "interfaceId",
          "type": "bytes4"
        }
      ],
      "name": "supportsInterface",
      "outputs": [
        {
          "internalType": "bool",
          "name": "",
          "type": "bool"
        }
      ],
      "stateMutability": "view",
      "type": "function"
    },
    {
      "inputs": [],
      "name": "symbol",
      "outputs": [
        {
          "internalType": "string",
          "name": "",
          "type": "string"
        }
      ],
      "stateMutability": "view",
      "type": "function"
    },
    {
      "inputs": [],
      "name": "token",
      "outputs": [
        {
          "internalType": "contract IERC20",
          "name": "",
          "type": "address"
        }
      ],
      "stateMutability": "view",
      "type": "function"
    },
    {
      "inputs": [
        {
          "internalType": "uint256",
          "name": "index",
          "type": "uint256"
        }
      ],
      "name": "tokenByIndex",
      "outputs": [
        {
          "internalType": "uint256",
          "name": "",
          "type": "uint256"
        }
      ],
      "stateMutability": "view",
      "type": "function"
    },
    {
      "inputs": [
        {
          "internalType": "address",
          "name": "owner",
          "type": "address"
        },
        {
          "internalType": "uint256",
          "name": "index",
          "type": "uint256"
        }
      ],
      "name": "tokenOfOwnerByIndex",
      "outputs": [
        {
          "internalType": "uint256",
          "name": "",
          "type": "uint256"
        }
      ],
      "stateMutability": "view",
      "type": "function"
    },
    {
      "inputs": [
        {
          "internalType": "uint256",
          "name": "tokenId",
          "type": "uint256"
        }
      ],
      "name": "tokenURI",
      "outputs": [
        {
          "internalType": "string",
          "name": "",
          "type": "string"
        }
      ],
      "stateMutability": "view",
      "type": "function"
    },
    {
      "inputs": [],
      "name": "totalStaked",
      "outputs": [
        {
          "internalType": "uint256",
          "name": "",
          "type": "uint256"
        }
      ],
      "stateMutability": "view",
      "type": "function"
    },
    {
      "inputs": [],
      "name": "totalSupply",
      "outputs": [
        {
          "internalType": "uint256",
          "name": "",
          "type": "uint256"
        }
      ],
      "stateMutability": "view",
      "type": "function"
    },
    {
      "inputs": [
        {
          "internalType": "address",
          "name": "from",
          "type": "address"
        },
        {
          "internalType": "address",
          "name": "to",
          "type": "address"
        },
        {
          "internalType": "uint256",
          "name": "tokenId",
          "type": "uint256"
        }
      ],
      "name": "transferFrom",
      "outputs": [],
      "stateMutability": "nonpayable",
      "type": "function"
    },
    {
      "inputs": [
        {
          "internalType": "uint256",
          "name": "numTokens",
          "type": "uint256"
        }
      ],
      "name": "stake",
      "outputs": [],
      "stateMutability": "nonpayable",
      "type": "function"
    },
    {
      "inputs": [],
      "name": "removeStake",
      "outputs": [],
      "stateMutability": "nonpayable",
      "type": "function"
    },
    {
      "inputs": [],
      "name": "getReward",
      "outputs": [],
      "stateMutability": "nonpayable",
      "type": "function"
    },
    {
      "inputs": [
        {
          "internalType": "address",
          "name": "user",
          "type": "address"
        }
      ],
      "name": "getRewardsList",
      "outputs": [
        {
          "internalType": "uint256[]",
          "name": "",
          "type": "uint256[]"
        }
      ],
      "stateMutability": "view",
      "type": "function"
    },
    {
      "inputs": [
        {
          "internalType": "address",
          "name": "staker",
          "type": "address"
        }
      ],
      "name": "getStake",
      "outputs": [
        {
          "internalType": "uint256[2]",
          "name": "",
          "type": "uint256[2]"
        }
      ],
      "stateMutability": "view",
      "type": "function"
    }
  ],
  "bytecode": "0x60806040523480156200001157600080fd5b50604051620045b9380380620045b9833981810160405260608110156200003757600080fd5b8101908080519060200190929190805160405193929190846401000000008211156200006257600080fd5b838201915060208201858111156200007957600080fd5b82518660018202830111640100000000821117156200009757600080fd5b8083526020830192505050908051906020019080838360005b83811015620000cd578082015181840152602081019050620000b0565b50505050905090810190601f168015620000fb5780820380516001836020036101000a031916815260200191505b50604052602001805160405193929190846401000000008211156200011f57600080fd5b838201915060208201858111156200013657600080fd5b82518660018202830111640100000000821117156200015457600080fd5b8083526020830192505050908051906020019080838360005b838110156200018a5780820151818401526020810190506200016d565b50505050905090810190601f168015620001b85780820380516001836020036101000a031916815260200191505b506040525050508181620001d96301ffc9a760e01b6200029f60201b60201c565b8160069080519060200190620001f1929190620003a8565b5080600790805190602001906200020a929190620003a8565b50620002236380ac58cd60e01b6200029f60201b60201c565b6200023b635b5e139f60e01b6200029f60201b60201c565b6200025363780e9d6360e01b6200029f60201b60201c565b505082600b60006101000a81548173ffffffffffffffffffffffffffffffffffffffff021916908373ffffffffffffffffffffffffffffffffffffffff16021790555050505062000457565b63ffffffff60e01b817bffffffffffffffffffffffffffffffffffffffffffffffffffffffff191614156200033c576040517f08c379a000000000000000000000000000000000000000000000000000000000815260040180806020018281038252601c8152602001807f4552433136353a20696e76616c696420696e746572666163652069640000000081525060200191505060405180910390fd5b6001600080837bffffffffffffffffffffffffffffffffffffffffffffffffffffffff19167bffffffffffffffffffffffffffffffffffffffffffffffffffffffff1916815260200190815260200160002060006101000a81548160ff02191690831515021790555050565b828054600181600116156101000203166002900490600052602060002090601f016020900481019282601f10620003eb57805160ff19168380011785556200041c565b828001600101855582156200041c579182015b828111156200041b578251825591602001919060010190620003fe565b5b5090506200042b91906200042f565b5090565b6200045491905b808211156200045057600081600090555060010162000436565b5090565b90565b61415280620004676000396000f3fe608060405234801561001057600080fd5b50600436106101a95760003560e01c80636c0360eb116100f9578063a22cb46511610097578063b88d4fde11610071578063b88d4fde1461098e578063c87b56dd14610a93578063e985e9c514610b3a578063fc0c546a14610bb6576101a9565b8063a22cb465146108b1578063a694fc3a14610901578063afd361fa1461092f576101a9565b8063817b1cd2116100d3578063817b1cd21461078a5780638fe033fc146107a857806395d89b41146108245780639c91b779146108a7576101a9565b80636c0360eb1461062f57806370a08231146106b25780637a7664601461070a576101a9565b806323b872dd1161016657806342842e0e1161014057806342842e0e146104e357806342966c68146105515780634f6ccce71461057f5780636352211e146105c1576101a9565b806323b872dd146104095780632f745c59146104775780633d18b912146104d9576101a9565b8063019cfbd8146101ae57806301ffc9a71461024757806306fdde03146102ac578063081812fc1461032f578063095ea7b31461039d57806318160ddd146103eb575b600080fd5b6101f0600480360360208110156101c457600080fd5b81019080803573ffffffffffffffffffffffffffffffffffffffff169060200190929190505050610c00565b6040518080602001828103825283818151815260200191508051906020019060200280838360005b83811015610233578082015181840152602081019050610218565b505050509050019250505060405180910390f35b6102926004803603602081101561025d57600080fd5b8101908080357bffffffffffffffffffffffffffffffffffffffffffffffffffffffff19169060200190929190505050610c8b565b604051808215151515815260200191505060405180910390f35b6102b4610cf2565b6040518080602001828103825283818151815260200191508051906020019080838360005b838110156102f45780820151818401526020810190506102d9565b50505050905090810190601f1680156103215780820380516001836020036101000a031916815260200191505b509250505060405180910390f35b61035b6004803603602081101561034557600080fd5b8101908080359060200190929190505050610d94565b604051808273ffffffffffffffffffffffffffffffffffffffff1673ffffffffffffffffffffffffffffffffffffffff16815260200191505060405180910390f35b6103e9600480360360408110156103b357600080fd5b81019080803573ffffffffffffffffffffffffffffffffffffffff16906020019092919080359060200190929190505050610e2f565b005b6103f3610f73565b6040518082815260200191505060405180910390f35b6104756004803603606081101561041f57600080fd5b81019080803573ffffffffffffffffffffffffffffffffffffffff169060200190929190803573ffffffffffffffffffffffffffffffffffffffff16906020019092919080359060200190929190505050610f84565b005b6104c36004803603604081101561048d57600080fd5b81019080803573ffffffffffffffffffffffffffffffffffffffff16906020019092919080359060200190929190505050610ffa565b6040518082815260200191505060405180910390f35b6104e1611055565b005b61054f600480360360608110156104f957600080fd5b81019080803573ffffffffffffffffffffffffffffffffffffffff169060200190929190803573ffffffffffffffffffffffffffffffffffffffff169060200190929190803590602001909291905050506113c7565b005b61057d6004803603602081101561056757600080fd5b81019080803590602001909291905050506113e7565b005b6105ab6004803603602081101561059557600080fd5b8101908080359060200190929190505050611459565b6040518082815260200191505060405180910390f35b6105ed600480360360208110156105d757600080fd5b810190808035906020019092919050505061147c565b604051808273ffffffffffffffffffffffffffffffffffffffff1673ffffffffffffffffffffffffffffffffffffffff16815260200191505060405180910390f35b6106376114b3565b6040518080602001828103825283818151815260200191508051906020019080838360005b8381101561067757808201518184015260208101905061065c565b50505050905090810190601f1680156106a45780820380516001836020036101000a031916815260200191505b509250505060405180910390f35b6106f4600480360360208110156106c857600080fd5b81019080803573ffffffffffffffffffffffffffffffffffffffff169060200190929190505050611555565b6040518082815260200191505060405180910390f35b61074c6004803603602081101561072057600080fd5b81019080803573ffffffffffffffffffffffffffffffffffffffff16906020019092919050505061162a565b6040518082600260200280838360005b8381101561077757808201518184015260208101905061075c565b5050505090500191505060405180910390f35b6107926116de565b6040518082815260200191505060405180910390f35b6107d4600480360360208110156107be57600080fd5b81019080803590602001909291905050506116e4565b604051808473ffffffffffffffffffffffffffffffffffffffff1673ffffffffffffffffffffffffffffffffffffffff168152602001838152602001828152602001935050505060405180910390f35b61082c61172e565b6040518080602001828103825283818151815260200191508051906020019080838360005b8381101561086c578082015181840152602081019050610851565b50505050905090810190601f1680156108995780820380516001836020036101000a031916815260200191505b509250505060405180910390f35b6108af6117d0565b005b6108ff600480360360408110156108c757600080fd5b81019080803573ffffffffffffffffffffffffffffffffffffffff169060200190929190803515159060200190929190505050611c1d565b005b61092d6004803603602081101561091757600080fd5b8101908080359060200190929190505050611dd5565b005b6109716004803603602081101561094557600080fd5b81019080803573ffffffffffffffffffffffffffffffffffffffff16906020019092919050505061218d565b604051808381526020018281526020019250505060405180910390f35b610a91600480360360808110156109a457600080fd5b81019080803573ffffffffffffffffffffffffffffffffffffffff169060200190929190803573ffffffffffffffffffffffffffffffffffffffff1690602001909291908035906020019092919080359060200190640100000000811115610a0b57600080fd5b820183602082011115610a1d57600080fd5b80359060200191846001830284011164010000000083111715610a3f57600080fd5b91908080601f016020809104026020016040519081016040528093929190818152602001838380828437600081840152601f19601f8201169050808301925050505050505091929192905050506121b1565b005b610abf60048036036020811015610aa957600080fd5b8101908080359060200190929190505050612229565b6040518080602001828103825283818151815260200191508051906020019080838360005b83811015610aff578082015181840152602081019050610ae4565b50505050905090810190601f168015610b2c5780820380516001836020036101000a031916815260200191505b509250505060405180910390f35b610b9c60048036036040811015610b5057600080fd5b81019080803573ffffffffffffffffffffffffffffffffffffffff169060200190929190803573ffffffffffffffffffffffffffffffffffffffff169060200190929190505050612512565b604051808215151515815260200191505060405180910390f35b610bbe6125a6565b604051808273ffffffffffffffffffffffffffffffffffffffff1673ffffffffffffffffffffffffffffffffffffffff16815260200191505060405180910390f35b60606000610c0d83611555565b9050606081604051908082528060200260200182016040528015610c405781602001602082028038833980820191505090505b50905060008090505b82811015610c8057610c5b8582610ffa565b828281518110610c6757fe5b6020026020010181815250508080600101915050610c49565b508092505050919050565b6000806000837bffffffffffffffffffffffffffffffffffffffffffffffffffffffff19167bffffffffffffffffffffffffffffffffffffffffffffffffffffffff1916815260200190815260200160002060009054906101000a900460ff169050919050565b606060068054600181600116156101000203166002900480601f016020809104026020016040519081016040528092919081815260200182805460018160011615610100020316600290048015610d8a5780601f10610d5f57610100808354040283529160200191610d8a565b820191906000526020600020905b815481529060010190602001808311610d6d57829003601f168201915b5050505050905090565b6000610d9f826125cc565b610df4576040517f08c379a000000000000000000000000000000000000000000000000000000000815260040180806020018281038252602c815260200180613fed602c913960400191505060405180910390fd5b6004600083815260200190815260200160002060009054906101000a900473ffffffffffffffffffffffffffffffffffffffff169050919050565b6000610e3a8261147c565b90508073ffffffffffffffffffffffffffffffffffffffff168373ffffffffffffffffffffffffffffffffffffffff161415610ec1576040517f08c379a00000000000000000000000000000000000000000000000000000000081526004018080602001828103825260218152602001806140716021913960400191505060405180910390fd5b8073ffffffffffffffffffffffffffffffffffffffff16610ee06125e9565b73ffffffffffffffffffffffffffffffffffffffff161480610f0f5750610f0e81610f096125e9565b612512565b5b610f64576040517f08c379a0000000000000000000000000000000000000000000000000000000008152600401808060200182810382526038815260200180613f1c6038913960400191505060405180910390fd5b610f6e83836125f1565b505050565b6000610f7f60026126aa565b905090565b610f95610f8f6125e9565b826126bf565b610fea576040517f08c379a00000000000000000000000000000000000000000000000000000000081526004018080602001828103825260318152602001806140926031913960400191505060405180910390fd5b610ff58383836127b3565b505050565b600061104d82600160008673ffffffffffffffffffffffffffffffffffffffff1673ffffffffffffffffffffffffffffffffffffffff1681526020019081526020016000206129f690919063ffffffff16565b905092915050565b6000600c60003373ffffffffffffffffffffffffffffffffffffffff1673ffffffffffffffffffffffffffffffffffffffff16815260200190815260200160002060000154116110f0576040517f08c379a0000000000000000000000000000000000000000000000000000000008152600401808060200182810382526022815260200180613e1b6022913960400191505060405180910390fd5b43600c60003373ffffffffffffffffffffffffffffffffffffffff1673ffffffffffffffffffffffffffffffffffffffff168152602001908152602001600020600101541061118a576040517f08c379a0000000000000000000000000000000000000000000000000000000008152600401808060200182810382526032815260200180613e6f6032913960400191505060405180910390fd5b6000600c60003373ffffffffffffffffffffffffffffffffffffffff1673ffffffffffffffffffffffffffffffffffffffff1681526020019081526020016000206000015490506000600c60003373ffffffffffffffffffffffffffffffffffffffff1673ffffffffffffffffffffffffffffffffffffffff168152602001908152602001600020600101549050611222600a612a10565b604051806040016040528083815260200143815250600c60003373ffffffffffffffffffffffffffffffffffffffff1673ffffffffffffffffffffffffffffffffffffffff16815260200190815260200160002060008201518160000155602082015181600101559050506000611299600a612a26565b90506000824303905060405180606001604052803373ffffffffffffffffffffffffffffffffffffffff16815260200185815260200182815250600d600084815260200190815260200160002060008201518160000160006101000a81548173ffffffffffffffffffffffffffffffffffffffff021916908373ffffffffffffffffffffffffffffffffffffffff160217905550602082015181600101556040820151816002015590505061134e3383612a34565b7f65a98625af3cd2e35d7615a60cb849ac6a2368e0b468f363f5c4eb99a3a2beb9338583604051808473ffffffffffffffffffffffffffffffffffffffff1673ffffffffffffffffffffffffffffffffffffffff168152602001838152602001828152602001935050505060405180910390a150505050565b6113e2838383604051806020016040528060008152506121b1565b505050565b6113f86113f26125e9565b826126bf565b61144d576040517f08c379a00000000000000000000000000000000000000000000000000000000081526004018080602001828103825260308152602001806140ed6030913960400191505060405180910390fd5b61145681612a52565b50565b600080611470836002612b8c90919063ffffffff16565b50905080915050919050565b60006114ac82604051806060016040528060298152602001613fa2602991396002612bbb9092919063ffffffff16565b9050919050565b606060098054600181600116156101000203166002900480601f01602080910402602001604051908101604052809291908181526020018280546001816001161561010002031660029004801561154b5780601f106115205761010080835404028352916020019161154b565b820191906000526020600020905b81548152906001019060200180831161152e57829003601f168201915b5050505050905090565b60008073ffffffffffffffffffffffffffffffffffffffff168273ffffffffffffffffffffffffffffffffffffffff1614156115dc576040517f08c379a000000000000000000000000000000000000000000000000000000000815260040180806020018281038252602a815260200180613f54602a913960400191505060405180910390fd5b611623600160008473ffffffffffffffffffffffffffffffffffffffff1673ffffffffffffffffffffffffffffffffffffffff168152602001908152602001600020612bda565b9050919050565b611632613d69565b61163a613d69565b6040518060400160405280600c60008673ffffffffffffffffffffffffffffffffffffffff1673ffffffffffffffffffffffffffffffffffffffff168152602001908152602001600020600001548152602001600c60008673ffffffffffffffffffffffffffffffffffffffff1673ffffffffffffffffffffffffffffffffffffffff16815260200190815260200160002060010154815250905080915050919050565b600e5481565b600d6020528060005260406000206000915090508060000160009054906101000a900473ffffffffffffffffffffffffffffffffffffffff16908060010154908060020154905083565b606060078054600181600116156101000203166002900480601f0160208091040260200160405190810160405280929190818152602001828054600181600116156101000203166002900480156117c65780601f1061179b576101008083540402835291602001916117c6565b820191906000526020600020905b8154815290600101906020018083116117a957829003601f168201915b5050505050905090565b6000600c60003373ffffffffffffffffffffffffffffffffffffffff1673ffffffffffffffffffffffffffffffffffffffff1681526020019081526020016000206000015411611888576040517f08c379a000000000000000000000000000000000000000000000000000000000815260040180806020018281038252601c8152602001807f4e65656420746f2068617665206e6f6e7a65726f2062616c616e63650000000081525060200191505060405180910390fd5b6000600c60003373ffffffffffffffffffffffffffffffffffffffff1673ffffffffffffffffffffffffffffffffffffffff1681526020019081526020016000206001015411611940576040517f08c379a00000000000000000000000000000000000000000000000000000000081526004018080602001828103825260208152602001807f4e65656420746f2068617665206e6f6e7a65726f207374617274206e6c6f636b81525060200191505060405180910390fd5b6000600c60003373ffffffffffffffffffffffffffffffffffffffff1673ffffffffffffffffffffffffffffffffffffffff1681526020019081526020016000206000015490506000600c60003373ffffffffffffffffffffffffffffffffffffffff1673ffffffffffffffffffffffffffffffffffffffff16815260200190815260200160002060010154905081600e5403600e8190555060006119e5600a612a26565b90506000824303905060405180606001604052803373ffffffffffffffffffffffffffffffffffffffff16815260200185815260200182815250600d600084815260200190815260200160002060008201518160000160006101000a81548173ffffffffffffffffffffffffffffffffffffffff021916908373ffffffffffffffffffffffffffffffffffffffff1602179055506020820151816001015560408201518160020155905050611a9a3383612a34565b7f65a98625af3cd2e35d7615a60cb849ac6a2368e0b468f363f5c4eb99a3a2beb9338583604051808473ffffffffffffffffffffffffffffffffffffffff1673ffffffffffffffffffffffffffffffffffffffff168152602001838152602001828152602001935050505060405180910390a1600c60003373ffffffffffffffffffffffffffffffffffffffff1673ffffffffffffffffffffffffffffffffffffffff16815260200190815260200160002060008082016000905560018201600090555050611bac3385600b60009054906101000a900473ffffffffffffffffffffffffffffffffffffffff1673ffffffffffffffffffffffffffffffffffffffff16612bef9092919063ffffffff16565b7f729750260b67eae221bc9863a1a44d019c5ee061e03f96f26b2ae61e9afbd9583385604051808373ffffffffffffffffffffffffffffffffffffffff1673ffffffffffffffffffffffffffffffffffffffff1681526020018281526020019250505060405180910390a150505050565b611c256125e9565b73ffffffffffffffffffffffffffffffffffffffff168273ffffffffffffffffffffffffffffffffffffffff161415611cc6576040517f08c379a00000000000000000000000000000000000000000000000000000000081526004018080602001828103825260198152602001807f4552433732313a20617070726f766520746f2063616c6c65720000000000000081525060200191505060405180910390fd5b8060056000611cd36125e9565b73ffffffffffffffffffffffffffffffffffffffff1673ffffffffffffffffffffffffffffffffffffffff16815260200190815260200160002060008473ffffffffffffffffffffffffffffffffffffffff1673ffffffffffffffffffffffffffffffffffffffff16815260200190815260200160002060006101000a81548160ff0219169083151502179055508173ffffffffffffffffffffffffffffffffffffffff16611d806125e9565b73ffffffffffffffffffffffffffffffffffffffff167f17307eab39ab6107e8899845ad3d59bd9653f200f220920489ca2b5937696c3183604051808215151515815260200191505060405180910390a35050565b80600b60009054906101000a900473ffffffffffffffffffffffffffffffffffffffff1673ffffffffffffffffffffffffffffffffffffffff166370a08231336040518263ffffffff1660e01b8152600401808273ffffffffffffffffffffffffffffffffffffffff1673ffffffffffffffffffffffffffffffffffffffff16815260200191505060206040518083038186803b158015611e7557600080fd5b505afa158015611e89573d6000803e3d6000fd5b505050506040513d6020811015611e9f57600080fd5b81019080805190602001909291905050501015611f24576040517f08c379a000000000000000000000000000000000000000000000000000000000815260040180806020018281038252601e8152602001807f43616e2774207374616b65206d6f7265207468616e20796f752068617665000081525060200191505060405180910390fd5b6000600c60003373ffffffffffffffffffffffffffffffffffffffff1673ffffffffffffffffffffffffffffffffffffffff1681526020019081526020016000206000015414611fbf576040517f08c379a0000000000000000000000000000000000000000000000000000000008152600401808060200182810382526024815260200180613f7e6024913960400191505060405180910390fd5b6000600c60003373ffffffffffffffffffffffffffffffffffffffff1673ffffffffffffffffffffffffffffffffffffffff168152602001908152602001600020600101541461205a576040517f08c379a000000000000000000000000000000000000000000000000000000000815260040180806020018281038252602b815260200180613ec5602b913960400191505060405180910390fd5b604051806040016040528082815260200143815250600c60003373ffffffffffffffffffffffffffffffffffffffff1673ffffffffffffffffffffffffffffffffffffffff168152602001908152602001600020600082015181600001556020820151816001015590505080600e5401600e8190555061211f333083600b60009054906101000a900473ffffffffffffffffffffffffffffffffffffffff1673ffffffffffffffffffffffffffffffffffffffff16612ca7909392919063ffffffff16565b7fa83a7d64d4f89a47352baea502461c5aa5a2bcd48f69f837e4228d66c8a011483382604051808373ffffffffffffffffffffffffffffffffffffffff1673ffffffffffffffffffffffffffffffffffffffff1681526020018281526020019250505060405180910390a150565b600c6020528060005260406000206000915090508060000154908060010154905082565b6121c26121bc6125e9565b836126bf565b612217576040517f08c379a00000000000000000000000000000000000000000000000000000000081526004018080602001828103825260318152602001806140926031913960400191505060405180910390fd5b61222384848484612d94565b50505050565b6060612234826125cc565b612289576040517f08c379a000000000000000000000000000000000000000000000000000000000815260040180806020018281038252602f815260200180614042602f913960400191505060405180910390fd5b6060600860008481526020019081526020016000208054600181600116156101000203166002900480601f0160208091040260200160405190810160405280929190818152602001828054600181600116156101000203166002900480156123325780601f1061230757610100808354040283529160200191612332565b820191906000526020600020905b81548152906001019060200180831161231557829003601f168201915b50505050509050600060098054600181600116156101000203166002900490501415612361578091505061250d565b60008151111561243a5760098160405160200180838054600181600116156101000203166002900480156123cc5780601f106123aa5761010080835404028352918201916123cc565b820191906000526020600020905b8154815290600101906020018083116123b8575b505082805190602001908083835b602083106123fd57805182526020820191506020810190506020830392506123da565b6001836020036101000a0380198251168184511680821785525050505050509050019250505060405160208183030381529060405291505061250d565b600961244584612e06565b60405160200180838054600181600116156101000203166002900480156124a35780601f106124815761010080835404028352918201916124a3565b820191906000526020600020905b81548152906001019060200180831161248f575b505082805190602001908083835b602083106124d457805182526020820191506020810190506020830392506124b1565b6001836020036101000a038019825116818451168082178552505050505050905001925050506040516020818303038152906040529150505b919050565b6000600560008473ffffffffffffffffffffffffffffffffffffffff1673ffffffffffffffffffffffffffffffffffffffff16815260200190815260200160002060008373ffffffffffffffffffffffffffffffffffffffff1673ffffffffffffffffffffffffffffffffffffffff16815260200190815260200160002060009054906101000a900460ff16905092915050565b600b60009054906101000a900473ffffffffffffffffffffffffffffffffffffffff1681565b60006125e2826002612f3690919063ffffffff16565b9050919050565b600033905090565b816004600083815260200190815260200160002060006101000a81548173ffffffffffffffffffffffffffffffffffffffff021916908373ffffffffffffffffffffffffffffffffffffffff160217905550808273ffffffffffffffffffffffffffffffffffffffff166126648361147c565b73ffffffffffffffffffffffffffffffffffffffff167f8c5be1e5ebec7d5bd14f71427d1e84f3dd0314c0f7b2291e5b200ac8c7c3b92560405160405180910390a45050565b60006126b882600001612f50565b9050919050565b60006126ca826125cc565b61271f576040517f08c379a000000000000000000000000000000000000000000000000000000000815260040180806020018281038252602c815260200180613ef0602c913960400191505060405180910390fd5b600061272a8361147c565b90508073ffffffffffffffffffffffffffffffffffffffff168473ffffffffffffffffffffffffffffffffffffffff16148061279957508373ffffffffffffffffffffffffffffffffffffffff1661278184610d94565b73ffffffffffffffffffffffffffffffffffffffff16145b806127aa57506127a98185612512565b5b91505092915050565b8273ffffffffffffffffffffffffffffffffffffffff166127d38261147c565b73ffffffffffffffffffffffffffffffffffffffff161461283f576040517f08c379a00000000000000000000000000000000000000000000000000000000081526004018080602001828103825260298152602001806140196029913960400191505060405180910390fd5b600073ffffffffffffffffffffffffffffffffffffffff168273ffffffffffffffffffffffffffffffffffffffff1614156128c5576040517f08c379a0000000000000000000000000000000000000000000000000000000008152600401808060200182810382526024815260200180613ea16024913960400191505060405180910390fd5b6128d0838383612f61565b6128db6000826125f1565b61292c81600160008673ffffffffffffffffffffffffffffffffffffffff1673ffffffffffffffffffffffffffffffffffffffff168152602001908152602001600020612f6690919063ffffffff16565b5061297e81600160008573ffffffffffffffffffffffffffffffffffffffff1673ffffffffffffffffffffffffffffffffffffffff168152602001908152602001600020612f8090919063ffffffff16565b5061299581836002612f9a9092919063ffffffff16565b50808273ffffffffffffffffffffffffffffffffffffffff168473ffffffffffffffffffffffffffffffffffffffff167fddf252ad1be2c89b69c2b068fc378daa952ba7f163c4a11628f55a4df523b3ef60405160405180910390a4505050565b6000612a058360000183612fcf565b60001c905092915050565b6001816000016000828254019250508190555050565b600081600001549050919050565b612a4e828260405180602001604052806000815250613052565b5050565b6000612a5d8261147c565b9050612a6b81600084612f61565b612a766000836125f1565b60006008600084815260200190815260200160002080546001816001161561010002031660029004905014612ac557600860008381526020019081526020016000206000612ac49190613d8b565b5b612b1682600160008473ffffffffffffffffffffffffffffffffffffffff1673ffffffffffffffffffffffffffffffffffffffff168152602001908152602001600020612f6690919063ffffffff16565b50612b2b8260026130c390919063ffffffff16565b5081600073ffffffffffffffffffffffffffffffffffffffff168273ffffffffffffffffffffffffffffffffffffffff167fddf252ad1be2c89b69c2b068fc378daa952ba7f163c4a11628f55a4df523b3ef60405160405180910390a45050565b600080600080612b9f86600001866130dd565b915091508160001c8160001c8090509350935050509250929050565b6000612bce846000018460001b84613176565b60001c90509392505050565b6000612be88260000161326c565b9050919050565b612ca28363a9059cbb60e01b8484604051602401808373ffffffffffffffffffffffffffffffffffffffff1673ffffffffffffffffffffffffffffffffffffffff16815260200182815260200192505050604051602081830303815290604052907bffffffffffffffffffffffffffffffffffffffffffffffffffffffff19166020820180517bffffffffffffffffffffffffffffffffffffffffffffffffffffffff838183161783525050505061327d565b505050565b612d8e846323b872dd60e01b858585604051602401808473ffffffffffffffffffffffffffffffffffffffff1673ffffffffffffffffffffffffffffffffffffffff1681526020018373ffffffffffffffffffffffffffffffffffffffff1673ffffffffffffffffffffffffffffffffffffffff1681526020018281526020019350505050604051602081830303815290604052907bffffffffffffffffffffffffffffffffffffffffffffffffffffffff19166020820180517bffffffffffffffffffffffffffffffffffffffffffffffffffffffff838183161783525050505061327d565b50505050565b612d9f8484846127b3565b612dab8484848461336c565b612e00576040517f08c379a0000000000000000000000000000000000000000000000000000000008152600401808060200182810382526032815260200180613e3d6032913960400191505060405180910390fd5b50505050565b60606000821415612e4e576040518060400160405280600181526020017f30000000000000000000000000000000000000000000000000000000000000008152509050612f31565b600082905060005b60008214612e78578080600101915050600a8281612e7057fe5b049150612e56565b6060816040519080825280601f01601f191660200182016040528015612ead5781602001600182028038833980820191505090505b50905060006001830390508593505b60008414612f2957600a8481612ece57fe5b0660300160f81b82828060019003935081518110612ee857fe5b60200101907effffffffffffffffffffffffffffffffffffffffffffffffffffffffffffff1916908160001a905350600a8481612f2157fe5b049350612ebc565b819450505050505b919050565b6000612f48836000018360001b6135b1565b905092915050565b600081600001805490509050919050565b505050565b6000612f78836000018360001b6135d4565b905092915050565b6000612f92836000018360001b6136bc565b905092915050565b6000612fc6846000018460001b8473ffffffffffffffffffffffffffffffffffffffff1660001b61372c565b90509392505050565b600081836000018054905011613030576040517f08c379a0000000000000000000000000000000000000000000000000000000008152600401808060200182810382526022815260200180613df96022913960400191505060405180910390fd5b82600001828154811061303f57fe5b9060005260206000200154905092915050565b61305c8383613808565b613069600084848461336c565b6130be576040517f08c379a0000000000000000000000000000000000000000000000000000000008152600401808060200182810382526032815260200180613e3d6032913960400191505060405180910390fd5b505050565b60006130d5836000018360001b6139fc565b905092915050565b6000808284600001805490501161313f576040517f08c379a0000000000000000000000000000000000000000000000000000000008152600401808060200182810382526022815260200180613fcb6022913960400191505060405180910390fd5b600084600001848154811061315057fe5b906000526020600020906002020190508060000154816001015492509250509250929050565b6000808460010160008581526020019081526020016000205490506000811415839061323d576040517f08c379a00000000000000000000000000000000000000000000000000000000081526004018080602001828103825283818151815260200191508051906020019080838360005b838110156132025780820151818401526020810190506131e7565b50505050905090810190601f16801561322f5780820380516001836020036101000a031916815260200191505b509250505060405180910390fd5b5084600001600182038154811061325057fe5b9060005260206000209060020201600101549150509392505050565b600081600001805490509050919050565b60606132df826040518060400160405280602081526020017f5361666545524332303a206c6f772d6c6576656c2063616c6c206661696c65648152508573ffffffffffffffffffffffffffffffffffffffff16613b159092919063ffffffff16565b90506000815111156133675780806020019051602081101561330057600080fd5b8101908080519060200190929190505050613366576040517f08c379a000000000000000000000000000000000000000000000000000000000815260040180806020018281038252602a8152602001806140c3602a913960400191505060405180910390fd5b5b505050565b600061338d8473ffffffffffffffffffffffffffffffffffffffff16613b2d565b61339a57600190506135a9565b606061353063150b7a0260e01b6133af6125e9565b888787604051602401808573ffffffffffffffffffffffffffffffffffffffff1673ffffffffffffffffffffffffffffffffffffffff1681526020018473ffffffffffffffffffffffffffffffffffffffff1673ffffffffffffffffffffffffffffffffffffffff16815260200183815260200180602001828103825283818151815260200191508051906020019080838360005b8381101561345f578082015181840152602081019050613444565b50505050905090810190601f16801561348c5780820380516001836020036101000a031916815260200191505b5095505050505050604051602081830303815290604052907bffffffffffffffffffffffffffffffffffffffffffffffffffffffff19166020820180517bffffffffffffffffffffffffffffffffffffffffffffffffffffffff8381831617835250505050604051806060016040528060328152602001613e3d603291398773ffffffffffffffffffffffffffffffffffffffff16613b159092919063ffffffff16565b9050600081806020019051602081101561354957600080fd5b8101908080519060200190929190505050905063150b7a0260e01b7bffffffffffffffffffffffffffffffffffffffffffffffffffffffff1916817bffffffffffffffffffffffffffffffffffffffffffffffffffffffff191614925050505b949350505050565b600080836001016000848152602001908152602001600020541415905092915050565b600080836001016000848152602001908152602001600020549050600081146136b0576000600182039050600060018660000180549050039050600086600001828154811061361f57fe5b906000526020600020015490508087600001848154811061363c57fe5b906000526020600020018190555060018301876001016000838152602001908152602001600020819055508660000180548061367457fe5b600190038181906000526020600020016000905590558660010160008781526020019081526020016000206000905560019450505050506136b6565b60009150505b92915050565b60006136c88383613b40565b613721578260000182908060018154018082558091505060019003906000526020600020016000909190919091505582600001805490508360010160008481526020019081526020016000208190555060019050613726565b600090505b92915050565b60008084600101600085815260200190815260200160002054905060008114156137d357846000016040518060400160405280868152602001858152509080600181540180825580915050600190039060005260206000209060020201600090919091909150600082015181600001556020820151816001015550508460000180549050856001016000868152602001908152602001600020819055506001915050613801565b828560000160018303815481106137e657fe5b90600052602060002090600202016001018190555060009150505b9392505050565b600073ffffffffffffffffffffffffffffffffffffffff168273ffffffffffffffffffffffffffffffffffffffff1614156138ab576040517f08c379a00000000000000000000000000000000000000000000000000000000081526004018080602001828103825260208152602001807f4552433732313a206d696e7420746f20746865207a65726f206164647265737381525060200191505060405180910390fd5b6138b4816125cc565b15613927576040517f08c379a000000000000000000000000000000000000000000000000000000000815260040180806020018281038252601c8152602001807f4552433732313a20746f6b656e20616c7265616479206d696e7465640000000081525060200191505060405180910390fd5b61393360008383612f61565b61398481600160008573ffffffffffffffffffffffffffffffffffffffff1673ffffffffffffffffffffffffffffffffffffffff168152602001908152602001600020612f8090919063ffffffff16565b5061399b81836002612f9a9092919063ffffffff16565b50808273ffffffffffffffffffffffffffffffffffffffff16600073ffffffffffffffffffffffffffffffffffffffff167fddf252ad1be2c89b69c2b068fc378daa952ba7f163c4a11628f55a4df523b3ef60405160405180910390a45050565b60008083600101600084815260200190815260200160002054905060008114613b095760006001820390506000600186600001805490500390506000866000018281548110613a4757fe5b9060005260206000209060020201905080876000018481548110613a6757fe5b9060005260206000209060020201600082015481600001556001820154816001015590505060018301876001016000836000015481526020019081526020016000208190555086600001805480613aba57fe5b6001900381819060005260206000209060020201600080820160009055600182016000905550509055866001016000878152602001908152602001600020600090556001945050505050613b0f565b60009150505b92915050565b6060613b248484600085613b63565b90509392505050565b600080823b905060008111915050919050565b600080836001016000848152602001908152602001600020541415905092915050565b6060613b6e85613b2d565b613be0576040517f08c379a000000000000000000000000000000000000000000000000000000000815260040180806020018281038252601d8152602001807f416464726573733a2063616c6c20746f206e6f6e2d636f6e747261637400000081525060200191505060405180910390fd5b600060608673ffffffffffffffffffffffffffffffffffffffff1685876040518082805190602001908083835b60208310613c305780518252602082019150602081019050602083039250613c0d565b6001836020036101000a03801982511681845116808217855250505050505090500191505060006040518083038185875af1925050503d8060008114613c92576040519150601f19603f3d011682016040523d82523d6000602084013e613c97565b606091505b50915091508115613cac578092505050613d61565b600081511115613cbf5780518082602001fd5b836040517f08c379a00000000000000000000000000000000000000000000000000000000081526004018080602001828103825283818151815260200191508051906020019080838360005b83811015613d26578082015181840152602081019050613d0b565b50505050905090810190601f168015613d535780820380516001836020036101000a031916815260200191505b509250505060405180910390fd5b949350505050565b6040518060400160405280600290602082028038833980820191505090505090565b50805460018160011615610100020316600290046000825580601f10613db15750613dd0565b601f016020900490600052602060002090810190613dcf9190613dd3565b5b50565b613df591905b80821115613df1576000816000905550600101613dd9565b5090565b9056fe456e756d657261626c655365743a20696e646578206f7574206f6620626f756e64734e65656420746f2068617665206e6f6e7a65726f20746f6b656e73207374616b65644552433732313a207472616e7366657220746f206e6f6e20455243373231526563656976657220696d706c656d656e74657243616e277420636c61696d207265776172647320696e207468652073616d6520626c6f636b20617320796f75207374616b654552433732313a207472616e7366657220746f20746865207a65726f206164647265737343616e277420616c7265616479206265207374616b65642077697468207374617274696e6720626c6f636b4552433732313a206f70657261746f7220717565727920666f72206e6f6e6578697374656e7420746f6b656e4552433732313a20617070726f76652063616c6c6572206973206e6f74206f776e6572206e6f7220617070726f76656420666f7220616c6c4552433732313a2062616c616e636520717565727920666f7220746865207a65726f206164647265737343616e277420616c7265616479206265207374616b656420776974682062616c616e63654552433732313a206f776e657220717565727920666f72206e6f6e6578697374656e7420746f6b656e456e756d657261626c654d61703a20696e646578206f7574206f6620626f756e64734552433732313a20617070726f76656420717565727920666f72206e6f6e6578697374656e7420746f6b656e4552433732313a207472616e73666572206f6620746f6b656e2074686174206973206e6f74206f776e4552433732314d657461646174613a2055524920717565727920666f72206e6f6e6578697374656e7420746f6b656e4552433732313a20617070726f76616c20746f2063757272656e74206f776e65724552433732313a207472616e736665722063616c6c6572206973206e6f74206f776e6572206e6f7220617070726f7665645361666545524332303a204552433230206f7065726174696f6e20646964206e6f7420737563636565644552433732314275726e61626c653a2063616c6c6572206973206e6f74206f776e6572206e6f7220617070726f766564a26469706673582212206854f14973f34daef4472dca04fc06dec60d56b502245111ac3115f7ae1f72f064736f6c63430006020033",
  "source": "// SPDX-License-Identifier: GPL-3.0\n\npragma solidity ^0.6.1;\n\nimport \"@openzeppelin/contracts/token/ERC20/IERC20.sol\";\nimport \"@openzeppelin/contracts/token/ERC20/SafeERC20.sol\";\nimport \"@openzeppelin/contracts/token/ERC721/ERC721Burnable.sol\";\nimport \"@openzeppelin/contracts/utils/Counters.sol\";\n\ncontract TokenStaker is ERC721Burnable {\n  \n  using SafeERC20 for IERC20;\n  using Counters for Counters.Counter;\n\n  Counters.Counter private _rewardIds;\n\n  struct Stake {\n    uint256 amount;\n    uint256 startBlock;\n  }\n\n  struct Reward {\n    address owner;\n    uint256 amount;\n    uint256 blockDuration;\n  }\n\n  IERC20 public token;\n\n  mapping(address => Stake) public stakeRecords;\n  mapping(uint256 => Reward) public rewardRecords;\n  uint256 public totalStaked;\n\n  event AddStakedTokens(address user, uint256 amount);\n  event RemoveStakedTokens(address user, uint256 amount);\n  event MintedReward(address user, uint256 amount, uint256 duration);\n\n  constructor(address tokenAddress, string memory name, string memory symbol) ERC721(name, symbol) public {\n    token = IERC20(tokenAddress);\n  }\n\n  // Adds staked tokens\n  // requires user to have called approve first on the token contract for TokenStaker\n  function stake(uint256 numTokens) public {\n    require(token.balanceOf(msg.sender) >= numTokens, \"Can't stake more than you have\");\n    require(stakeRecords[msg.sender].amount == 0, \"Can't already be staked with balance\");\n    require(stakeRecords[msg.sender].startBlock == 0, \"Can't already be staked with starting block\");\n\n    // Update the mapping\n    stakeRecords[msg.sender] = Stake(\n      numTokens,\n      block.number\n    );\n    // Update the totalStaked count\n    totalStaked = totalStaked + numTokens;\n\n    // Transfer tokens to contract\n    token.safeTransferFrom(msg.sender, address(this), numTokens);\n    emit AddStakedTokens(msg.sender, numTokens);\n  }\n\n  // Removes all staked tokens\n  function removeStake() public {\n    require(stakeRecords[msg.sender].amount > 0, \"Need to have nonzero balance\");\n    require(stakeRecords[msg.sender].startBlock > 0, \"Need to have nonzero start nlock\");\n\n    uint256 numTokens = stakeRecords[msg.sender].amount;\n    uint256 startBlock = stakeRecords[msg.sender].startBlock;\n    \n    // Reduce the totalStaked count\n    totalStaked = totalStaked - numTokens;\n\n    // Claim rewards one more time\n    // Get new reward id\n    uint256 newRewardId = _rewardIds.current();\n    // Set the new NFT's data\n    uint256 blockDuration = block.number-startBlock;\n    rewardRecords[newRewardId] = Reward(\n      msg.sender,\n      numTokens,\n      blockDuration\n    );\n    // Mint the new NFT\n    _safeMint(msg.sender, newRewardId);\n    emit MintedReward(msg.sender, numTokens, blockDuration);\n    \n    // Remove the mapping\n    delete stakeRecords[msg.sender];\n\n    // Transfer the staked tokens back\n    token.safeTransfer(msg.sender, numTokens);\n    emit RemoveStakedTokens(msg.sender, numTokens);\n  }\n  \n  function getReward() public {\n    require(stakeRecords[msg.sender].amount > 0, \"Need to have nonzero tokens staked\");\n    require(stakeRecords[msg.sender].startBlock < block.number, \"Can't claim rewards in the same block as you stake\");\n    uint256 numTokens = stakeRecords[msg.sender].amount;\n    uint256 startBlock = stakeRecords[msg.sender].startBlock;\n    _rewardIds.increment();\n\n    // Reset start block to be current block number but keep the same number of tokens\n    stakeRecords[msg.sender] = Stake(\n      numTokens,\n      block.number\n    );\n\n    // Get new reward id\n    uint256 newRewardId = _rewardIds.current();\n    // Set the new NFT's data\n    uint256 blockDuration = block.number-startBlock;\n    rewardRecords[newRewardId] = Reward(\n      msg.sender,\n      numTokens,\n      blockDuration\n    );\n\n    // Mint the new NFT\n    _safeMint(msg.sender, newRewardId);\n    emit MintedReward(msg.sender, numTokens, blockDuration);\n  }\n\n\n  // returns ids of all rewards held by user\n  function getRewardsList(address user) public view returns(uint256[] memory) {\n    uint256 numRewards = balanceOf(user);\n    uint256[] memory rewardsList = new uint[](numRewards);\n    for (uint256 i = 0; i < numRewards; i++) {\n      rewardsList[i] = tokenOfOwnerByIndex(user, i);\n    }\n    return rewardsList;\n  }\n\n  function getStake(address staker) public view returns(uint256[2] memory) {\n    uint256[2] memory s = [stakeRecords[staker].amount, stakeRecords[staker].startBlock];\n    return s;\n  }\n\n}",
  "sourcePath": "/home/owen/GitHub/lockup-yfb/contracts/TokenStaker.sol",
  "compiler": {
    "name": "solc",
    "version": "0.6.2+commit.bacdbe57.Emscripten.clang"
  },
  "schemaVersion": "3.2.5",
  "updatedAt": "2020-09-21T23:35:17.520Z",
  "devdoc": {
    "methods": {
      "approve(address,uint256)": {
        "details": "See {IERC721-approve}."
      },
      "balanceOf(address)": {
        "details": "See {IERC721-balanceOf}."
      },
      "baseURI()": {
        "details": "Returns the base URI set via {_setBaseURI}. This will be automatically added as a prefix in {tokenURI} to each token's URI, or to the token ID if no specific URI is set for that token ID."
      },
      "burn(uint256)": {
        "details": "Burns `tokenId`. See {ERC721-_burn}.     * Requirements:     * - The caller must own `tokenId` or be an approved operator."
      },
      "getApproved(uint256)": {
        "details": "See {IERC721-getApproved}."
      },
      "isApprovedForAll(address,address)": {
        "details": "See {IERC721-isApprovedForAll}."
      },
      "name()": {
        "details": "See {IERC721Metadata-name}."
      },
      "ownerOf(uint256)": {
        "details": "See {IERC721-ownerOf}."
      },
      "safeTransferFrom(address,address,uint256)": {
        "details": "See {IERC721-safeTransferFrom}."
      },
      "safeTransferFrom(address,address,uint256,bytes)": {
        "details": "See {IERC721-safeTransferFrom}."
      },
      "setApprovalForAll(address,bool)": {
        "details": "See {IERC721-setApprovalForAll}."
      },
      "supportsInterface(bytes4)": {
        "details": "See {IERC165-supportsInterface}.     * Time complexity O(1), guaranteed to always use less than 30 000 gas."
      },
      "symbol()": {
        "details": "See {IERC721Metadata-symbol}."
      },
      "tokenByIndex(uint256)": {
        "details": "See {IERC721Enumerable-tokenByIndex}."
      },
      "tokenOfOwnerByIndex(address,uint256)": {
        "details": "See {IERC721Enumerable-tokenOfOwnerByIndex}."
      },
      "tokenURI(uint256)": {
        "details": "See {IERC721Metadata-tokenURI}."
      },
      "totalSupply()": {
        "details": "See {IERC721Enumerable-totalSupply}."
      },
      "transferFrom(address,address,uint256)": {
        "details": "See {IERC721-transferFrom}."
      }
    }
  },
  "userdoc": {
    "methods": {}
  }
}