{
  "contractName": "TokenStaker",
  "abi": [
    {
      "inputs": [
        {
          "internalType": "address",
          "name": "tokenAddress",
          "type": "address"
        }
      ],
      "stateMutability": "nonpayable",
      "type": "constructor"
    },
    {
      "anonymous": false,
      "inputs": [
        {
          "indexed": false,
          "internalType": "address",
          "name": "user",
          "type": "address"
        },
        {
          "indexed": false,
          "internalType": "uint256",
          "name": "amount",
          "type": "uint256"
        }
      ],
      "name": "AddStakedTokens",
      "type": "event"
    },
    {
      "anonymous": false,
      "inputs": [
        {
          "indexed": false,
          "internalType": "address",
          "name": "user",
          "type": "address"
        },
        {
          "indexed": false,
          "internalType": "uint256",
          "name": "amount",
          "type": "uint256"
        }
      ],
      "name": "RemoveStakedTokens",
      "type": "event"
    },
    {
      "inputs": [
        {
          "internalType": "address",
          "name": "",
          "type": "address"
        }
      ],
      "name": "stakeRecords",
      "outputs": [
        {
          "internalType": "uint256",
          "name": "amount",
          "type": "uint256"
        },
        {
          "internalType": "uint256",
          "name": "startBlock",
          "type": "uint256"
        }
      ],
      "stateMutability": "view",
      "type": "function",
      "constant": true
    },
    {
      "inputs": [],
      "name": "token",
      "outputs": [
        {
          "internalType": "contract IERC20",
          "name": "",
          "type": "address"
        }
      ],
      "stateMutability": "view",
      "type": "function",
      "constant": true
    },
    {
      "inputs": [],
      "name": "totalStaked",
      "outputs": [
        {
          "internalType": "uint256",
          "name": "",
          "type": "uint256"
        }
      ],
      "stateMutability": "view",
      "type": "function",
      "constant": true
    },
    {
      "inputs": [
        {
          "internalType": "address",
          "name": "staker",
          "type": "address"
        },
        {
          "internalType": "uint256",
          "name": "numTokens",
          "type": "uint256"
        }
      ],
      "name": "stake",
      "outputs": [],
      "stateMutability": "nonpayable",
      "type": "function"
    },
    {
      "inputs": [
        {
          "internalType": "address",
          "name": "staker",
          "type": "address"
        }
      ],
      "name": "removeStake",
      "outputs": [],
      "stateMutability": "nonpayable",
      "type": "function"
    },
    {
      "inputs": [
        {
          "internalType": "address",
          "name": "staker",
          "type": "address"
        }
      ],
      "name": "getStake",
      "outputs": [
        {
          "internalType": "uint256[2]",
          "name": "",
          "type": "uint256[2]"
        }
      ],
      "stateMutability": "view",
      "type": "function",
      "constant": true
    },
    {
      "inputs": [
        {
          "internalType": "address",
          "name": "staker",
          "type": "address"
        }
      ],
      "name": "getBlockDiff",
      "outputs": [
        {
          "internalType": "uint256",
          "name": "",
          "type": "uint256"
        }
      ],
      "stateMutability": "view",
      "type": "function",
      "constant": true
    }
  ],
  "bytecode": "0x608060405234801561001057600080fd5b50604051610d1e380380610d1e8339818101604052602081101561003357600080fd5b810190808051906020019092919050505080600260006101000a81548173ffffffffffffffffffffffffffffffffffffffff021916908373ffffffffffffffffffffffffffffffffffffffff16021790555050610c89806100956000396000f3fe608060405234801561001057600080fd5b506004361061007d5760003560e01c8063adc9772e1161005b578063adc9772e14610178578063afd361fa146101c6578063fc0c546a14610225578063fe2ba8481461026f5761007d565b80630a80b6fa146100825780637a766460146100da578063817b1cd21461015a575b600080fd5b6100c46004803603602081101561009857600080fd5b81019080803573ffffffffffffffffffffffffffffffffffffffff1690602001909291905050506102b3565b6040518082815260200191505060405180910390f35b61011c600480360360208110156100f057600080fd5b81019080803573ffffffffffffffffffffffffffffffffffffffff169060200190929190505050610300565b6040518082600260200280838360005b8381101561014757808201518184015260208101905061012c565b5050505090500191505060405180910390f35b6101626103b2565b6040518082815260200191505060405180910390f35b6101c46004803603604081101561018e57600080fd5b81019080803573ffffffffffffffffffffffffffffffffffffffff169060200190929190803590602001909291905050506103b8565b005b610208600480360360208110156101dc57600080fd5b81019080803573ffffffffffffffffffffffffffffffffffffffff1690602001909291905050506108ed565b604051808381526020018281526020019250505060405180910390f35b61022d610911565b604051808273ffffffffffffffffffffffffffffffffffffffff1673ffffffffffffffffffffffffffffffffffffffff16815260200191505060405180910390f35b6102b16004803603602081101561028557600080fd5b81019080803573ffffffffffffffffffffffffffffffffffffffff169060200190929190505050610937565b005b60008060008373ffffffffffffffffffffffffffffffffffffffff1673ffffffffffffffffffffffffffffffffffffffff1681526020019081526020016000206001015443039050919050565b610308610be2565b610310610be2565b60405180604001604052806000808673ffffffffffffffffffffffffffffffffffffffff1673ffffffffffffffffffffffffffffffffffffffff1681526020019081526020016000206000015481526020016000808673ffffffffffffffffffffffffffffffffffffffff1673ffffffffffffffffffffffffffffffffffffffff16815260200190815260200160002060010154815250905080915050919050565b60015481565b600073ffffffffffffffffffffffffffffffffffffffff168273ffffffffffffffffffffffffffffffffffffffff16141561045b576040517f08c379a00000000000000000000000000000000000000000000000000000000081526004018080602001828103825260208152602001807f43616e2774207374616b6520666f7220746865207a65726f206164647265737381525060200191505060405180910390fd5b80600260009054906101000a900473ffffffffffffffffffffffffffffffffffffffff1673ffffffffffffffffffffffffffffffffffffffff166370a08231846040518263ffffffff1660e01b8152600401808273ffffffffffffffffffffffffffffffffffffffff1673ffffffffffffffffffffffffffffffffffffffff16815260200191505060206040518083038186803b1580156104fb57600080fd5b505afa15801561050f573d6000803e3d6000fd5b505050506040513d602081101561052557600080fd5b810190808051906020019092919050505010156105aa576040517f08c379a000000000000000000000000000000000000000000000000000000000815260040180806020018281038252601e8152602001807f43616e2774207374616b65206d6f7265207468616e20796f752068617665000081525060200191505060405180910390fd5b60008060008473ffffffffffffffffffffffffffffffffffffffff1673ffffffffffffffffffffffffffffffffffffffff1681526020019081526020016000206000015414610644576040517f08c379a0000000000000000000000000000000000000000000000000000000008152600401808060200182810382526024815260200180610c306024913960400191505060405180910390fd5b60008060008473ffffffffffffffffffffffffffffffffffffffff1673ffffffffffffffffffffffffffffffffffffffff16815260200190815260200160002060010154146106de576040517f08c379a000000000000000000000000000000000000000000000000000000000815260040180806020018281038252602b815260200180610c05602b913960400191505060405180910390fd5b6000600260009054906101000a900473ffffffffffffffffffffffffffffffffffffffff1673ffffffffffffffffffffffffffffffffffffffff166323b872dd8430856040518463ffffffff1660e01b8152600401808473ffffffffffffffffffffffffffffffffffffffff1673ffffffffffffffffffffffffffffffffffffffff1681526020018373ffffffffffffffffffffffffffffffffffffffff1673ffffffffffffffffffffffffffffffffffffffff1681526020018281526020019350505050602060405180830381600087803b1580156107bd57600080fd5b505af11580156107d1573d6000803e3d6000fd5b505050506040513d60208110156107e757600080fd5b810190808051906020019092919050505090506001151581151514156108e8576040518060400160405280838152602001438152506000808573ffffffffffffffffffffffffffffffffffffffff1673ffffffffffffffffffffffffffffffffffffffff168152602001908152602001600020600082015181600001556020820151816001015590505081600154016001819055507fa83a7d64d4f89a47352baea502461c5aa5a2bcd48f69f837e4228d66c8a011488383604051808373ffffffffffffffffffffffffffffffffffffffff1673ffffffffffffffffffffffffffffffffffffffff1681526020018281526020019250505060405180910390a15b505050565b60006020528060005260406000206000915090508060000154908060010154905082565b600260009054906101000a900473ffffffffffffffffffffffffffffffffffffffff1681565b600073ffffffffffffffffffffffffffffffffffffffff168173ffffffffffffffffffffffffffffffffffffffff1614156109da576040517f08c379a00000000000000000000000000000000000000000000000000000000081526004018080602001828103825260208152602001807f43616e2774207374616b6520666f7220746865207a65726f206164647265737381525060200191505060405180910390fd5b60008060008373ffffffffffffffffffffffffffffffffffffffff1673ffffffffffffffffffffffffffffffffffffffff1681526020019081526020016000206000015490506000600260009054906101000a900473ffffffffffffffffffffffffffffffffffffffff1673ffffffffffffffffffffffffffffffffffffffff1663a9059cbb84846040518363ffffffff1660e01b8152600401808373ffffffffffffffffffffffffffffffffffffffff1673ffffffffffffffffffffffffffffffffffffffff16815260200182815260200192505050602060405180830381600087803b158015610acb57600080fd5b505af1158015610adf573d6000803e3d6000fd5b505050506040513d6020811015610af557600080fd5b81019080805190602001909291905050509050600115158115151415610bdd576000808473ffffffffffffffffffffffffffffffffffffffff1673ffffffffffffffffffffffffffffffffffffffff1681526020019081526020016000206000808201600090556001820160009055505081600154036001819055507f729750260b67eae221bc9863a1a44d019c5ee061e03f96f26b2ae61e9afbd9588383604051808373ffffffffffffffffffffffffffffffffffffffff1673ffffffffffffffffffffffffffffffffffffffff1681526020018281526020019250505060405180910390a15b505050565b604051806040016040528060029060208202803883398082019150509050509056fe43616e277420616c7265616479206265207374616b65642077697468207374617274696e6720626c6f636b43616e277420616c7265616479206265207374616b656420776974682062616c616e6365a26469706673582212201a0ddb5d47889bdd4d3f40707696c8c3859f93a7b9eca613095fe08b8fc35e1764736f6c63430006020033",
  "source": "// SPDX-License-Identifier: GPL-3.0\n\npragma solidity ^0.6.1;\n\nimport \"@openzeppelin/contracts/token/ERC20/IERC20.sol\";\n\ncontract TokenStaker {\n\n  struct Stake {\n    uint256 amount;\n    uint256 startBlock;\n  }\n\n  mapping(address => Stake) public stakeRecords;\n  uint256 public totalStaked;\n  IERC20 public token;\n\n  event AddStakedTokens(address user, uint256 amount);\n  event RemoveStakedTokens(address user, uint256 amount);\n\n  constructor(address tokenAddress) public {\n    token = IERC20(tokenAddress);\n  }\n\n  // Adds staked tokens\n  // requires user to have called approve first on the token contract for TokenStaker\n  function stake(address staker, uint256 numTokens) public {\n    require(staker != address(0), \"Can't stake for the zero address\");\n    require(token.balanceOf(staker) >= numTokens, \"Can't stake more than you have\");\n    require(stakeRecords[staker].amount == 0, \"Can't already be staked with balance\");\n    require(stakeRecords[staker].startBlock == 0, \"Can't already be staked with starting block\");\n    // transfer tokens to contract\n    bool result = token.transferFrom(staker, address(this), numTokens);\n    if (result == true) {\n      // update the mapping\n      stakeRecords[staker] = Stake(\n        numTokens,\n        block.number\n      );\n      // update the totalStaked count\n      totalStaked = totalStaked + numTokens;\n      emit AddStakedTokens(staker, numTokens);\n    }\n  }\n\n  // Removes all staked tokens\n  function removeStake(address staker) public {\n    require(staker != address(0), \"Can't stake for the zero address\");\n    uint256 numTokens = stakeRecords[staker].amount;\n    bool result = token.transfer(staker, numTokens);\n    if (result == true) {\n      delete stakeRecords[staker];\n      totalStaked = totalStaked - numTokens;\n      emit RemoveStakedTokens(staker, numTokens);\n    }\n  }\n\n  function getStake(address staker) public view returns(uint256[2] memory) {\n    uint256[2] memory s = [stakeRecords[staker].amount, stakeRecords[staker].startBlock];\n    return s;\n  }\n\n  function getBlockDiff(address staker) public view returns(uint256) {\n    return (block.number-stakeRecords[staker].startBlock);\n  }\n}",
  "sourcePath": "/home/owen/GitHub/lockup-yfb/contracts/TokenStaker.sol",
  "compiler": {
    "name": "solc",
    "version": "0.6.2+commit.bacdbe57.Emscripten.clang"
  },
  "schemaVersion": "3.2.5",
  "updatedAt": "2020-09-20T16:22:54.642Z",
  "networkType": "ethereum",
  "devdoc": {
    "methods": {}
  },
  "userdoc": {
    "methods": {}
  }
}