{
  "contractName": "TokenStaker",
  "abi": [
    {
      "inputs": [
        {
          "internalType": "address",
          "name": "tokenAddress",
          "type": "address"
        },
        {
          "internalType": "string",
          "name": "name",
          "type": "string"
        },
        {
          "internalType": "string",
          "name": "symbol",
          "type": "string"
        }
      ],
      "stateMutability": "nonpayable",
      "type": "constructor"
    },
    {
      "anonymous": false,
      "inputs": [
        {
          "indexed": false,
          "internalType": "address",
          "name": "user",
          "type": "address"
        },
        {
          "indexed": false,
          "internalType": "uint256",
          "name": "amount",
          "type": "uint256"
        }
      ],
      "name": "AddStakedTokens",
      "type": "event"
    },
    {
      "anonymous": false,
      "inputs": [
        {
          "indexed": true,
          "internalType": "address",
          "name": "owner",
          "type": "address"
        },
        {
          "indexed": true,
          "internalType": "address",
          "name": "approved",
          "type": "address"
        },
        {
          "indexed": true,
          "internalType": "uint256",
          "name": "tokenId",
          "type": "uint256"
        }
      ],
      "name": "Approval",
      "type": "event"
    },
    {
      "anonymous": false,
      "inputs": [
        {
          "indexed": true,
          "internalType": "address",
          "name": "owner",
          "type": "address"
        },
        {
          "indexed": true,
          "internalType": "address",
          "name": "operator",
          "type": "address"
        },
        {
          "indexed": false,
          "internalType": "bool",
          "name": "approved",
          "type": "bool"
        }
      ],
      "name": "ApprovalForAll",
      "type": "event"
    },
    {
      "anonymous": false,
      "inputs": [
        {
          "indexed": false,
          "internalType": "address",
          "name": "user",
          "type": "address"
        },
        {
          "indexed": false,
          "internalType": "uint256",
          "name": "amount",
          "type": "uint256"
        },
        {
          "indexed": false,
          "internalType": "uint256",
          "name": "duration",
          "type": "uint256"
        }
      ],
      "name": "MintedReward",
      "type": "event"
    },
    {
      "anonymous": false,
      "inputs": [
        {
          "indexed": false,
          "internalType": "address",
          "name": "user",
          "type": "address"
        },
        {
          "indexed": false,
          "internalType": "uint256",
          "name": "amount",
          "type": "uint256"
        }
      ],
      "name": "RemoveStakedTokens",
      "type": "event"
    },
    {
      "anonymous": false,
      "inputs": [
        {
          "indexed": true,
          "internalType": "address",
          "name": "from",
          "type": "address"
        },
        {
          "indexed": true,
          "internalType": "address",
          "name": "to",
          "type": "address"
        },
        {
          "indexed": true,
          "internalType": "uint256",
          "name": "tokenId",
          "type": "uint256"
        }
      ],
      "name": "Transfer",
      "type": "event"
    },
    {
      "inputs": [
        {
          "internalType": "address",
          "name": "to",
          "type": "address"
        },
        {
          "internalType": "uint256",
          "name": "tokenId",
          "type": "uint256"
        }
      ],
      "name": "approve",
      "outputs": [],
      "stateMutability": "nonpayable",
      "type": "function"
    },
    {
      "inputs": [
        {
          "internalType": "address",
          "name": "owner",
          "type": "address"
        }
      ],
      "name": "balanceOf",
      "outputs": [
        {
          "internalType": "uint256",
          "name": "",
          "type": "uint256"
        }
      ],
      "stateMutability": "view",
      "type": "function",
      "constant": true
    },
    {
      "inputs": [],
      "name": "baseURI",
      "outputs": [
        {
          "internalType": "string",
          "name": "",
          "type": "string"
        }
      ],
      "stateMutability": "view",
      "type": "function",
      "constant": true
    },
    {
      "inputs": [
        {
          "internalType": "uint256",
          "name": "tokenId",
          "type": "uint256"
        }
      ],
      "name": "getApproved",
      "outputs": [
        {
          "internalType": "address",
          "name": "",
          "type": "address"
        }
      ],
      "stateMutability": "view",
      "type": "function",
      "constant": true
    },
    {
      "inputs": [
        {
          "internalType": "address",
          "name": "owner",
          "type": "address"
        },
        {
          "internalType": "address",
          "name": "operator",
          "type": "address"
        }
      ],
      "name": "isApprovedForAll",
      "outputs": [
        {
          "internalType": "bool",
          "name": "",
          "type": "bool"
        }
      ],
      "stateMutability": "view",
      "type": "function",
      "constant": true
    },
    {
      "inputs": [],
      "name": "name",
      "outputs": [
        {
          "internalType": "string",
          "name": "",
          "type": "string"
        }
      ],
      "stateMutability": "view",
      "type": "function",
      "constant": true
    },
    {
      "inputs": [
        {
          "internalType": "uint256",
          "name": "tokenId",
          "type": "uint256"
        }
      ],
      "name": "ownerOf",
      "outputs": [
        {
          "internalType": "address",
          "name": "",
          "type": "address"
        }
      ],
      "stateMutability": "view",
      "type": "function",
      "constant": true
    },
    {
      "inputs": [
        {
          "internalType": "uint256",
          "name": "",
          "type": "uint256"
        }
      ],
      "name": "rewardRecords",
      "outputs": [
        {
          "internalType": "address",
          "name": "owner",
          "type": "address"
        },
        {
          "internalType": "uint256",
          "name": "amount",
          "type": "uint256"
        },
        {
          "internalType": "uint256",
          "name": "blockDuration",
          "type": "uint256"
        }
      ],
      "stateMutability": "view",
      "type": "function",
      "constant": true
    },
    {
      "inputs": [
        {
          "internalType": "address",
          "name": "from",
          "type": "address"
        },
        {
          "internalType": "address",
          "name": "to",
          "type": "address"
        },
        {
          "internalType": "uint256",
          "name": "tokenId",
          "type": "uint256"
        }
      ],
      "name": "safeTransferFrom",
      "outputs": [],
      "stateMutability": "nonpayable",
      "type": "function"
    },
    {
      "inputs": [
        {
          "internalType": "address",
          "name": "from",
          "type": "address"
        },
        {
          "internalType": "address",
          "name": "to",
          "type": "address"
        },
        {
          "internalType": "uint256",
          "name": "tokenId",
          "type": "uint256"
        },
        {
          "internalType": "bytes",
          "name": "_data",
          "type": "bytes"
        }
      ],
      "name": "safeTransferFrom",
      "outputs": [],
      "stateMutability": "nonpayable",
      "type": "function"
    },
    {
      "inputs": [
        {
          "internalType": "address",
          "name": "operator",
          "type": "address"
        },
        {
          "internalType": "bool",
          "name": "approved",
          "type": "bool"
        }
      ],
      "name": "setApprovalForAll",
      "outputs": [],
      "stateMutability": "nonpayable",
      "type": "function"
    },
    {
      "inputs": [
        {
          "internalType": "address",
          "name": "",
          "type": "address"
        }
      ],
      "name": "stakeRecords",
      "outputs": [
        {
          "internalType": "uint256",
          "name": "amount",
          "type": "uint256"
        },
        {
          "internalType": "uint256",
          "name": "startBlock",
          "type": "uint256"
        }
      ],
      "stateMutability": "view",
      "type": "function",
      "constant": true
    },
    {
      "inputs": [
        {
          "internalType": "bytes4",
          "name": "interfaceId",
          "type": "bytes4"
        }
      ],
      "name": "supportsInterface",
      "outputs": [
        {
          "internalType": "bool",
          "name": "",
          "type": "bool"
        }
      ],
      "stateMutability": "view",
      "type": "function",
      "constant": true
    },
    {
      "inputs": [],
      "name": "symbol",
      "outputs": [
        {
          "internalType": "string",
          "name": "",
          "type": "string"
        }
      ],
      "stateMutability": "view",
      "type": "function",
      "constant": true
    },
    {
      "inputs": [],
      "name": "token",
      "outputs": [
        {
          "internalType": "contract IERC20",
          "name": "",
          "type": "address"
        }
      ],
      "stateMutability": "view",
      "type": "function",
      "constant": true
    },
    {
      "inputs": [
        {
          "internalType": "uint256",
          "name": "index",
          "type": "uint256"
        }
      ],
      "name": "tokenByIndex",
      "outputs": [
        {
          "internalType": "uint256",
          "name": "",
          "type": "uint256"
        }
      ],
      "stateMutability": "view",
      "type": "function",
      "constant": true
    },
    {
      "inputs": [
        {
          "internalType": "address",
          "name": "owner",
          "type": "address"
        },
        {
          "internalType": "uint256",
          "name": "index",
          "type": "uint256"
        }
      ],
      "name": "tokenOfOwnerByIndex",
      "outputs": [
        {
          "internalType": "uint256",
          "name": "",
          "type": "uint256"
        }
      ],
      "stateMutability": "view",
      "type": "function",
      "constant": true
    },
    {
      "inputs": [
        {
          "internalType": "uint256",
          "name": "tokenId",
          "type": "uint256"
        }
      ],
      "name": "tokenURI",
      "outputs": [
        {
          "internalType": "string",
          "name": "",
          "type": "string"
        }
      ],
      "stateMutability": "view",
      "type": "function",
      "constant": true
    },
    {
      "inputs": [],
      "name": "totalStaked",
      "outputs": [
        {
          "internalType": "uint256",
          "name": "",
          "type": "uint256"
        }
      ],
      "stateMutability": "view",
      "type": "function",
      "constant": true
    },
    {
      "inputs": [],
      "name": "totalSupply",
      "outputs": [
        {
          "internalType": "uint256",
          "name": "",
          "type": "uint256"
        }
      ],
      "stateMutability": "view",
      "type": "function",
      "constant": true
    },
    {
      "inputs": [
        {
          "internalType": "address",
          "name": "from",
          "type": "address"
        },
        {
          "internalType": "address",
          "name": "to",
          "type": "address"
        },
        {
          "internalType": "uint256",
          "name": "tokenId",
          "type": "uint256"
        }
      ],
      "name": "transferFrom",
      "outputs": [],
      "stateMutability": "nonpayable",
      "type": "function"
    },
    {
      "inputs": [
        {
          "internalType": "uint256",
          "name": "numTokens",
          "type": "uint256"
        }
      ],
      "name": "stake",
      "outputs": [],
      "stateMutability": "nonpayable",
      "type": "function"
    },
    {
      "inputs": [],
      "name": "removeStake",
      "outputs": [],
      "stateMutability": "nonpayable",
      "type": "function"
    },
    {
      "inputs": [],
      "name": "getReward",
      "outputs": [
        {
          "internalType": "uint256",
          "name": "",
          "type": "uint256"
        }
      ],
      "stateMutability": "nonpayable",
      "type": "function"
    },
    {
      "inputs": [
        {
          "internalType": "address",
          "name": "staker",
          "type": "address"
        }
      ],
      "name": "getStake",
      "outputs": [
        {
          "internalType": "uint256[2]",
          "name": "",
          "type": "uint256[2]"
        }
      ],
      "stateMutability": "view",
      "type": "function",
      "constant": true
    }
  ],
  "bytecode": "0x60806040523480156200001157600080fd5b5060405162003f4d38038062003f4d833981810160405260608110156200003757600080fd5b8101908080519060200190929190805160405193929190846401000000008211156200006257600080fd5b838201915060208201858111156200007957600080fd5b82518660018202830111640100000000821117156200009757600080fd5b8083526020830192505050908051906020019080838360005b83811015620000cd578082015181840152602081019050620000b0565b50505050905090810190601f168015620000fb5780820380516001836020036101000a031916815260200191505b50604052602001805160405193929190846401000000008211156200011f57600080fd5b838201915060208201858111156200013657600080fd5b82518660018202830111640100000000821117156200015457600080fd5b8083526020830192505050908051906020019080838360005b838110156200018a5780820151818401526020810190506200016d565b50505050905090810190601f168015620001b85780820380516001836020036101000a031916815260200191505b506040525050508181620001d96301ffc9a760e01b6200029f60201b60201c565b8160069080519060200190620001f1929190620003a8565b5080600790805190602001906200020a929190620003a8565b50620002236380ac58cd60e01b6200029f60201b60201c565b6200023b635b5e139f60e01b6200029f60201b60201c565b6200025363780e9d6360e01b6200029f60201b60201c565b505082600b60006101000a81548173ffffffffffffffffffffffffffffffffffffffff021916908373ffffffffffffffffffffffffffffffffffffffff16021790555050505062000457565b63ffffffff60e01b817bffffffffffffffffffffffffffffffffffffffffffffffffffffffff191614156200033c576040517f08c379a000000000000000000000000000000000000000000000000000000000815260040180806020018281038252601c8152602001807f4552433136353a20696e76616c696420696e746572666163652069640000000081525060200191505060405180910390fd5b6001600080837bffffffffffffffffffffffffffffffffffffffffffffffffffffffff19167bffffffffffffffffffffffffffffffffffffffffffffffffffffffff1916815260200190815260200160002060006101000a81548160ff02191690831515021790555050565b828054600181600116156101000203166002900490600052602060002090601f016020900481019282601f10620003eb57805160ff19168380011785556200041c565b828001600101855582156200041c579182015b828111156200041b578251825591602001919060010190620003fe565b5b5090506200042b91906200042f565b5090565b6200045491905b808211156200045057600081600090555060010162000436565b5090565b90565b613ae680620004676000396000f3fe608060405234801561001057600080fd5b50600436106101735760003560e01c806370a08231116100de578063a22cb46511610097578063b88d4fde11610071578063b88d4fde146108a5578063c87b56dd146109aa578063e985e9c514610a51578063fc0c546a14610acd57610173565b8063a22cb465146107c8578063a694fc3a14610818578063afd361fa1461084657610173565b806370a08231146105c95780637a76646014610621578063817b1cd2146106a15780638fe033fc146106bf57806395d89b411461073b5780639c91b779146107be57610173565b80632f745c59116101305780632f745c59146103a85780633d18b9121461040a57806342842e0e146104285780634f6ccce7146104965780636352211e146104d85780636c0360eb1461054657610173565b806301ffc9a71461017857806306fdde03146101dd578063081812fc14610260578063095ea7b3146102ce57806318160ddd1461031c57806323b872dd1461033a575b600080fd5b6101c36004803603602081101561018e57600080fd5b8101908080357bffffffffffffffffffffffffffffffffffffffffffffffffffffffff19169060200190929190505050610b17565b604051808215151515815260200191505060405180910390f35b6101e5610b7e565b6040518080602001828103825283818151815260200191508051906020019080838360005b8381101561022557808201518184015260208101905061020a565b50505050905090810190601f1680156102525780820380516001836020036101000a031916815260200191505b509250505060405180910390f35b61028c6004803603602081101561027657600080fd5b8101908080359060200190929190505050610c20565b604051808273ffffffffffffffffffffffffffffffffffffffff1673ffffffffffffffffffffffffffffffffffffffff16815260200191505060405180910390f35b61031a600480360360408110156102e457600080fd5b81019080803573ffffffffffffffffffffffffffffffffffffffff16906020019092919080359060200190929190505050610cbb565b005b610324610dff565b6040518082815260200191505060405180910390f35b6103a66004803603606081101561035057600080fd5b81019080803573ffffffffffffffffffffffffffffffffffffffff169060200190929190803573ffffffffffffffffffffffffffffffffffffffff16906020019092919080359060200190929190505050610e10565b005b6103f4600480360360408110156103be57600080fd5b81019080803573ffffffffffffffffffffffffffffffffffffffff16906020019092919080359060200190929190505050610e86565b6040518082815260200191505060405180910390f35b610412610ee1565b6040518082815260200191505060405180910390f35b6104946004803603606081101561043e57600080fd5b81019080803573ffffffffffffffffffffffffffffffffffffffff169060200190929190803573ffffffffffffffffffffffffffffffffffffffff16906020019092919080359060200190929190505050611255565b005b6104c2600480360360208110156104ac57600080fd5b8101908080359060200190929190505050611275565b6040518082815260200191505060405180910390f35b610504600480360360208110156104ee57600080fd5b8101908080359060200190929190505050611298565b604051808273ffffffffffffffffffffffffffffffffffffffff1673ffffffffffffffffffffffffffffffffffffffff16815260200191505060405180910390f35b61054e6112cf565b6040518080602001828103825283818151815260200191508051906020019080838360005b8381101561058e578082015181840152602081019050610573565b50505050905090810190601f1680156105bb5780820380516001836020036101000a031916815260200191505b509250505060405180910390f35b61060b600480360360208110156105df57600080fd5b81019080803573ffffffffffffffffffffffffffffffffffffffff169060200190929190505050611371565b6040518082815260200191505060405180910390f35b6106636004803603602081101561063757600080fd5b81019080803573ffffffffffffffffffffffffffffffffffffffff169060200190929190505050611446565b6040518082600260200280838360005b8381101561068e578082015181840152602081019050610673565b5050505090500191505060405180910390f35b6106a96114fa565b6040518082815260200191505060405180910390f35b6106eb600480360360208110156106d557600080fd5b8101908080359060200190929190505050611500565b604051808473ffffffffffffffffffffffffffffffffffffffff1673ffffffffffffffffffffffffffffffffffffffff168152602001838152602001828152602001935050505060405180910390f35b61074361154a565b6040518080602001828103825283818151815260200191508051906020019080838360005b83811015610783578082015181840152602081019050610768565b50505050905090810190601f1680156107b05780820380516001836020036101000a031916815260200191505b509250505060405180910390f35b6107c66115ec565b005b610816600480360360408110156107de57600080fd5b81019080803573ffffffffffffffffffffffffffffffffffffffff1690602001909291908035151590602001909291905050506118bb565b005b6108446004803603602081101561082e57600080fd5b8101908080359060200190929190505050611a73565b005b6108886004803603602081101561085c57600080fd5b81019080803573ffffffffffffffffffffffffffffffffffffffff169060200190929190505050611e2b565b604051808381526020018281526020019250505060405180910390f35b6109a8600480360360808110156108bb57600080fd5b81019080803573ffffffffffffffffffffffffffffffffffffffff169060200190929190803573ffffffffffffffffffffffffffffffffffffffff169060200190929190803590602001909291908035906020019064010000000081111561092257600080fd5b82018360208201111561093457600080fd5b8035906020019184600183028401116401000000008311171561095657600080fd5b91908080601f016020809104026020016040519081016040528093929190818152602001838380828437600081840152601f19601f820116905080830192505050505050509192919290505050611e4f565b005b6109d6600480360360208110156109c057600080fd5b8101908080359060200190929190505050611ec7565b6040518080602001828103825283818151815260200191508051906020019080838360005b83811015610a165780820151818401526020810190506109fb565b50505050905090810190601f168015610a435780820380516001836020036101000a031916815260200191505b509250505060405180910390f35b610ab360048036036040811015610a6757600080fd5b81019080803573ffffffffffffffffffffffffffffffffffffffff169060200190929190803573ffffffffffffffffffffffffffffffffffffffff1690602001909291905050506121b0565b604051808215151515815260200191505060405180910390f35b610ad5612244565b604051808273ffffffffffffffffffffffffffffffffffffffff1673ffffffffffffffffffffffffffffffffffffffff16815260200191505060405180910390f35b6000806000837bffffffffffffffffffffffffffffffffffffffffffffffffffffffff19167bffffffffffffffffffffffffffffffffffffffffffffffffffffffff1916815260200190815260200160002060009054906101000a900460ff169050919050565b606060068054600181600116156101000203166002900480601f016020809104026020016040519081016040528092919081815260200182805460018160011615610100020316600290048015610c165780601f10610beb57610100808354040283529160200191610c16565b820191906000526020600020905b815481529060010190602001808311610bf957829003601f168201915b5050505050905090565b6000610c2b8261226a565b610c80576040517f08c379a000000000000000000000000000000000000000000000000000000000815260040180806020018281038252602c8152602001806139b1602c913960400191505060405180910390fd5b6004600083815260200190815260200160002060009054906101000a900473ffffffffffffffffffffffffffffffffffffffff169050919050565b6000610cc682611298565b90508073ffffffffffffffffffffffffffffffffffffffff168373ffffffffffffffffffffffffffffffffffffffff161415610d4d576040517f08c379a0000000000000000000000000000000000000000000000000000000008152600401808060200182810382526021815260200180613a356021913960400191505060405180910390fd5b8073ffffffffffffffffffffffffffffffffffffffff16610d6c612287565b73ffffffffffffffffffffffffffffffffffffffff161480610d9b5750610d9a81610d95612287565b6121b0565b5b610df0576040517f08c379a00000000000000000000000000000000000000000000000000000000081526004018080602001828103825260388152602001806138e06038913960400191505060405180910390fd5b610dfa838361228f565b505050565b6000610e0b6002612348565b905090565b610e21610e1b612287565b8261235d565b610e76576040517f08c379a0000000000000000000000000000000000000000000000000000000008152600401808060200182810382526031815260200180613a566031913960400191505060405180910390fd5b610e81838383612451565b505050565b6000610ed982600160008673ffffffffffffffffffffffffffffffffffffffff1673ffffffffffffffffffffffffffffffffffffffff16815260200190815260200160002061269490919063ffffffff16565b905092915050565b600080600c60003373ffffffffffffffffffffffffffffffffffffffff1673ffffffffffffffffffffffffffffffffffffffff1681526020019081526020016000206000015411610f7d576040517f08c379a00000000000000000000000000000000000000000000000000000000081526004018080602001828103825260228152602001806137df6022913960400191505060405180910390fd5b43600c60003373ffffffffffffffffffffffffffffffffffffffff1673ffffffffffffffffffffffffffffffffffffffff1681526020019081526020016000206001015410611017576040517f08c379a00000000000000000000000000000000000000000000000000000000081526004018080602001828103825260328152602001806138336032913960400191505060405180910390fd5b6000600c60003373ffffffffffffffffffffffffffffffffffffffff1673ffffffffffffffffffffffffffffffffffffffff1681526020019081526020016000206000015490506000600c60003373ffffffffffffffffffffffffffffffffffffffff1673ffffffffffffffffffffffffffffffffffffffff1681526020019081526020016000206001015490506110af600a6126ae565b604051806040016040528083815260200143815250600c60003373ffffffffffffffffffffffffffffffffffffffff1673ffffffffffffffffffffffffffffffffffffffff16815260200190815260200160002060008201518160000155602082015181600101559050506000611126600a6126c4565b90506000824303905060405180606001604052803373ffffffffffffffffffffffffffffffffffffffff16815260200185815260200182815250600d600084815260200190815260200160002060008201518160000160006101000a81548173ffffffffffffffffffffffffffffffffffffffff021916908373ffffffffffffffffffffffffffffffffffffffff16021790555060208201518160010155604082015181600201559050506111db33836126d2565b7f65a98625af3cd2e35d7615a60cb849ac6a2368e0b468f363f5c4eb99a3a2beb9338583604051808473ffffffffffffffffffffffffffffffffffffffff1673ffffffffffffffffffffffffffffffffffffffff168152602001838152602001828152602001935050505060405180910390a15050505090565b61127083838360405180602001604052806000815250611e4f565b505050565b60008061128c8360026126f090919063ffffffff16565b50905080915050919050565b60006112c88260405180606001604052806029815260200161396660299139600261271f9092919063ffffffff16565b9050919050565b606060098054600181600116156101000203166002900480601f0160208091040260200160405190810160405280929190818152602001828054600181600116156101000203166002900480156113675780601f1061133c57610100808354040283529160200191611367565b820191906000526020600020905b81548152906001019060200180831161134a57829003601f168201915b5050505050905090565b60008073ffffffffffffffffffffffffffffffffffffffff168273ffffffffffffffffffffffffffffffffffffffff1614156113f8576040517f08c379a000000000000000000000000000000000000000000000000000000000815260040180806020018281038252602a815260200180613918602a913960400191505060405180910390fd5b61143f600160008473ffffffffffffffffffffffffffffffffffffffff1673ffffffffffffffffffffffffffffffffffffffff16815260200190815260200160002061273e565b9050919050565b61144e61379a565b61145661379a565b6040518060400160405280600c60008673ffffffffffffffffffffffffffffffffffffffff1673ffffffffffffffffffffffffffffffffffffffff168152602001908152602001600020600001548152602001600c60008673ffffffffffffffffffffffffffffffffffffffff1673ffffffffffffffffffffffffffffffffffffffff16815260200190815260200160002060010154815250905080915050919050565b600e5481565b600d6020528060005260406000206000915090508060000160009054906101000a900473ffffffffffffffffffffffffffffffffffffffff16908060010154908060020154905083565b606060078054600181600116156101000203166002900480601f0160208091040260200160405190810160405280929190818152602001828054600181600116156101000203166002900480156115e25780601f106115b7576101008083540402835291602001916115e2565b820191906000526020600020905b8154815290600101906020018083116115c557829003601f168201915b5050505050905090565b6000600c60003373ffffffffffffffffffffffffffffffffffffffff1673ffffffffffffffffffffffffffffffffffffffff16815260200190815260200160002060000154116116a4576040517f08c379a000000000000000000000000000000000000000000000000000000000815260040180806020018281038252601c8152602001807f4e65656420746f2068617665206e6f6e7a65726f2062616c616e63650000000081525060200191505060405180910390fd5b6000600c60003373ffffffffffffffffffffffffffffffffffffffff1673ffffffffffffffffffffffffffffffffffffffff168152602001908152602001600020600101541161175c576040517f08c379a00000000000000000000000000000000000000000000000000000000081526004018080602001828103825260208152602001807f4e65656420746f2068617665206e6f6e7a65726f207374617274206e6c6f636b81525060200191505060405180910390fd5b6000600c60003373ffffffffffffffffffffffffffffffffffffffff1673ffffffffffffffffffffffffffffffffffffffff168152602001908152602001600020600001549050600c60003373ffffffffffffffffffffffffffffffffffffffff1673ffffffffffffffffffffffffffffffffffffffff1681526020019081526020016000206000808201600090556001820160009055505080600e5403600e8190555061184d3382600b60009054906101000a900473ffffffffffffffffffffffffffffffffffffffff1673ffffffffffffffffffffffffffffffffffffffff166127539092919063ffffffff16565b7f729750260b67eae221bc9863a1a44d019c5ee061e03f96f26b2ae61e9afbd9583382604051808373ffffffffffffffffffffffffffffffffffffffff1673ffffffffffffffffffffffffffffffffffffffff1681526020018281526020019250505060405180910390a150565b6118c3612287565b73ffffffffffffffffffffffffffffffffffffffff168273ffffffffffffffffffffffffffffffffffffffff161415611964576040517f08c379a00000000000000000000000000000000000000000000000000000000081526004018080602001828103825260198152602001807f4552433732313a20617070726f766520746f2063616c6c65720000000000000081525060200191505060405180910390fd5b8060056000611971612287565b73ffffffffffffffffffffffffffffffffffffffff1673ffffffffffffffffffffffffffffffffffffffff16815260200190815260200160002060008473ffffffffffffffffffffffffffffffffffffffff1673ffffffffffffffffffffffffffffffffffffffff16815260200190815260200160002060006101000a81548160ff0219169083151502179055508173ffffffffffffffffffffffffffffffffffffffff16611a1e612287565b73ffffffffffffffffffffffffffffffffffffffff167f17307eab39ab6107e8899845ad3d59bd9653f200f220920489ca2b5937696c3183604051808215151515815260200191505060405180910390a35050565b80600b60009054906101000a900473ffffffffffffffffffffffffffffffffffffffff1673ffffffffffffffffffffffffffffffffffffffff166370a08231336040518263ffffffff1660e01b8152600401808273ffffffffffffffffffffffffffffffffffffffff1673ffffffffffffffffffffffffffffffffffffffff16815260200191505060206040518083038186803b158015611b1357600080fd5b505afa158015611b27573d6000803e3d6000fd5b505050506040513d6020811015611b3d57600080fd5b81019080805190602001909291905050501015611bc2576040517f08c379a000000000000000000000000000000000000000000000000000000000815260040180806020018281038252601e8152602001807f43616e2774207374616b65206d6f7265207468616e20796f752068617665000081525060200191505060405180910390fd5b6000600c60003373ffffffffffffffffffffffffffffffffffffffff1673ffffffffffffffffffffffffffffffffffffffff1681526020019081526020016000206000015414611c5d576040517f08c379a00000000000000000000000000000000000000000000000000000000081526004018080602001828103825260248152602001806139426024913960400191505060405180910390fd5b6000600c60003373ffffffffffffffffffffffffffffffffffffffff1673ffffffffffffffffffffffffffffffffffffffff1681526020019081526020016000206001015414611cf8576040517f08c379a000000000000000000000000000000000000000000000000000000000815260040180806020018281038252602b815260200180613889602b913960400191505060405180910390fd5b604051806040016040528082815260200143815250600c60003373ffffffffffffffffffffffffffffffffffffffff1673ffffffffffffffffffffffffffffffffffffffff168152602001908152602001600020600082015181600001556020820151816001015590505080600e5401600e81905550611dbd333083600b60009054906101000a900473ffffffffffffffffffffffffffffffffffffffff1673ffffffffffffffffffffffffffffffffffffffff1661280b909392919063ffffffff16565b7fa83a7d64d4f89a47352baea502461c5aa5a2bcd48f69f837e4228d66c8a011483382604051808373ffffffffffffffffffffffffffffffffffffffff1673ffffffffffffffffffffffffffffffffffffffff1681526020018281526020019250505060405180910390a150565b600c6020528060005260406000206000915090508060000154908060010154905082565b611e60611e5a612287565b8361235d565b611eb5576040517f08c379a0000000000000000000000000000000000000000000000000000000008152600401808060200182810382526031815260200180613a566031913960400191505060405180910390fd5b611ec1848484846128f8565b50505050565b6060611ed28261226a565b611f27576040517f08c379a000000000000000000000000000000000000000000000000000000000815260040180806020018281038252602f815260200180613a06602f913960400191505060405180910390fd5b6060600860008481526020019081526020016000208054600181600116156101000203166002900480601f016020809104026020016040519081016040528092919081815260200182805460018160011615610100020316600290048015611fd05780601f10611fa557610100808354040283529160200191611fd0565b820191906000526020600020905b815481529060010190602001808311611fb357829003601f168201915b50505050509050600060098054600181600116156101000203166002900490501415611fff57809150506121ab565b6000815111156120d857600981604051602001808380546001816001161561010002031660029004801561206a5780601f1061204857610100808354040283529182019161206a565b820191906000526020600020905b815481529060010190602001808311612056575b505082805190602001908083835b6020831061209b5780518252602082019150602081019050602083039250612078565b6001836020036101000a038019825116818451168082178552505050505050905001925050506040516020818303038152906040529150506121ab565b60096120e38461296a565b60405160200180838054600181600116156101000203166002900480156121415780601f1061211f576101008083540402835291820191612141565b820191906000526020600020905b81548152906001019060200180831161212d575b505082805190602001908083835b60208310612172578051825260208201915060208101905060208303925061214f565b6001836020036101000a038019825116818451168082178552505050505050905001925050506040516020818303038152906040529150505b919050565b6000600560008473ffffffffffffffffffffffffffffffffffffffff1673ffffffffffffffffffffffffffffffffffffffff16815260200190815260200160002060008373ffffffffffffffffffffffffffffffffffffffff1673ffffffffffffffffffffffffffffffffffffffff16815260200190815260200160002060009054906101000a900460ff16905092915050565b600b60009054906101000a900473ffffffffffffffffffffffffffffffffffffffff1681565b6000612280826002612a9a90919063ffffffff16565b9050919050565b600033905090565b816004600083815260200190815260200160002060006101000a81548173ffffffffffffffffffffffffffffffffffffffff021916908373ffffffffffffffffffffffffffffffffffffffff160217905550808273ffffffffffffffffffffffffffffffffffffffff1661230283611298565b73ffffffffffffffffffffffffffffffffffffffff167f8c5be1e5ebec7d5bd14f71427d1e84f3dd0314c0f7b2291e5b200ac8c7c3b92560405160405180910390a45050565b600061235682600001612ab4565b9050919050565b60006123688261226a565b6123bd576040517f08c379a000000000000000000000000000000000000000000000000000000000815260040180806020018281038252602c8152602001806138b4602c913960400191505060405180910390fd5b60006123c883611298565b90508073ffffffffffffffffffffffffffffffffffffffff168473ffffffffffffffffffffffffffffffffffffffff16148061243757508373ffffffffffffffffffffffffffffffffffffffff1661241f84610c20565b73ffffffffffffffffffffffffffffffffffffffff16145b80612448575061244781856121b0565b5b91505092915050565b8273ffffffffffffffffffffffffffffffffffffffff1661247182611298565b73ffffffffffffffffffffffffffffffffffffffff16146124dd576040517f08c379a00000000000000000000000000000000000000000000000000000000081526004018080602001828103825260298152602001806139dd6029913960400191505060405180910390fd5b600073ffffffffffffffffffffffffffffffffffffffff168273ffffffffffffffffffffffffffffffffffffffff161415612563576040517f08c379a00000000000000000000000000000000000000000000000000000000081526004018080602001828103825260248152602001806138656024913960400191505060405180910390fd5b61256e838383612ac5565b61257960008261228f565b6125ca81600160008673ffffffffffffffffffffffffffffffffffffffff1673ffffffffffffffffffffffffffffffffffffffff168152602001908152602001600020612aca90919063ffffffff16565b5061261c81600160008573ffffffffffffffffffffffffffffffffffffffff1673ffffffffffffffffffffffffffffffffffffffff168152602001908152602001600020612ae490919063ffffffff16565b5061263381836002612afe9092919063ffffffff16565b50808273ffffffffffffffffffffffffffffffffffffffff168473ffffffffffffffffffffffffffffffffffffffff167fddf252ad1be2c89b69c2b068fc378daa952ba7f163c4a11628f55a4df523b3ef60405160405180910390a4505050565b60006126a38360000183612b33565b60001c905092915050565b6001816000016000828254019250508190555050565b600081600001549050919050565b6126ec828260405180602001604052806000815250612bb6565b5050565b6000806000806127038660000186612c27565b915091508160001c8160001c8090509350935050509250929050565b6000612732846000018460001b84612cc0565b60001c90509392505050565b600061274c82600001612db6565b9050919050565b6128068363a9059cbb60e01b8484604051602401808373ffffffffffffffffffffffffffffffffffffffff1673ffffffffffffffffffffffffffffffffffffffff16815260200182815260200192505050604051602081830303815290604052907bffffffffffffffffffffffffffffffffffffffffffffffffffffffff19166020820180517bffffffffffffffffffffffffffffffffffffffffffffffffffffffff8381831617835250505050612dc7565b505050565b6128f2846323b872dd60e01b858585604051602401808473ffffffffffffffffffffffffffffffffffffffff1673ffffffffffffffffffffffffffffffffffffffff1681526020018373ffffffffffffffffffffffffffffffffffffffff1673ffffffffffffffffffffffffffffffffffffffff1681526020018281526020019350505050604051602081830303815290604052907bffffffffffffffffffffffffffffffffffffffffffffffffffffffff19166020820180517bffffffffffffffffffffffffffffffffffffffffffffffffffffffff8381831617835250505050612dc7565b50505050565b612903848484612451565b61290f84848484612eb6565b612964576040517f08c379a00000000000000000000000000000000000000000000000000000000081526004018080602001828103825260328152602001806138016032913960400191505060405180910390fd5b50505050565b606060008214156129b2576040518060400160405280600181526020017f30000000000000000000000000000000000000000000000000000000000000008152509050612a95565b600082905060005b600082146129dc578080600101915050600a82816129d457fe5b0491506129ba565b6060816040519080825280601f01601f191660200182016040528015612a115781602001600182028038833980820191505090505b50905060006001830390508593505b60008414612a8d57600a8481612a3257fe5b0660300160f81b82828060019003935081518110612a4c57fe5b60200101907effffffffffffffffffffffffffffffffffffffffffffffffffffffffffffff1916908160001a905350600a8481612a8557fe5b049350612a20565b819450505050505b919050565b6000612aac836000018360001b6130fb565b905092915050565b600081600001805490509050919050565b505050565b6000612adc836000018360001b61311e565b905092915050565b6000612af6836000018360001b613206565b905092915050565b6000612b2a846000018460001b8473ffffffffffffffffffffffffffffffffffffffff1660001b613276565b90509392505050565b600081836000018054905011612b94576040517f08c379a00000000000000000000000000000000000000000000000000000000081526004018080602001828103825260228152602001806137bd6022913960400191505060405180910390fd5b826000018281548110612ba357fe5b9060005260206000200154905092915050565b612bc08383613352565b612bcd6000848484612eb6565b612c22576040517f08c379a00000000000000000000000000000000000000000000000000000000081526004018080602001828103825260328152602001806138016032913960400191505060405180910390fd5b505050565b60008082846000018054905011612c89576040517f08c379a000000000000000000000000000000000000000000000000000000000815260040180806020018281038252602281526020018061398f6022913960400191505060405180910390fd5b6000846000018481548110612c9a57fe5b906000526020600020906002020190508060000154816001015492509250509250929050565b60008084600101600085815260200190815260200160002054905060008114158390612d87576040517f08c379a00000000000000000000000000000000000000000000000000000000081526004018080602001828103825283818151815260200191508051906020019080838360005b83811015612d4c578082015181840152602081019050612d31565b50505050905090810190601f168015612d795780820380516001836020036101000a031916815260200191505b509250505060405180910390fd5b50846000016001820381548110612d9a57fe5b9060005260206000209060020201600101549150509392505050565b600081600001805490509050919050565b6060612e29826040518060400160405280602081526020017f5361666545524332303a206c6f772d6c6576656c2063616c6c206661696c65648152508573ffffffffffffffffffffffffffffffffffffffff166135469092919063ffffffff16565b9050600081511115612eb157808060200190516020811015612e4a57600080fd5b8101908080519060200190929190505050612eb0576040517f08c379a000000000000000000000000000000000000000000000000000000000815260040180806020018281038252602a815260200180613a87602a913960400191505060405180910390fd5b5b505050565b6000612ed78473ffffffffffffffffffffffffffffffffffffffff1661355e565b612ee457600190506130f3565b606061307a63150b7a0260e01b612ef9612287565b888787604051602401808573ffffffffffffffffffffffffffffffffffffffff1673ffffffffffffffffffffffffffffffffffffffff1681526020018473ffffffffffffffffffffffffffffffffffffffff1673ffffffffffffffffffffffffffffffffffffffff16815260200183815260200180602001828103825283818151815260200191508051906020019080838360005b83811015612fa9578082015181840152602081019050612f8e565b50505050905090810190601f168015612fd65780820380516001836020036101000a031916815260200191505b5095505050505050604051602081830303815290604052907bffffffffffffffffffffffffffffffffffffffffffffffffffffffff19166020820180517bffffffffffffffffffffffffffffffffffffffffffffffffffffffff8381831617835250505050604051806060016040528060328152602001613801603291398773ffffffffffffffffffffffffffffffffffffffff166135469092919063ffffffff16565b9050600081806020019051602081101561309357600080fd5b8101908080519060200190929190505050905063150b7a0260e01b7bffffffffffffffffffffffffffffffffffffffffffffffffffffffff1916817bffffffffffffffffffffffffffffffffffffffffffffffffffffffff191614925050505b949350505050565b600080836001016000848152602001908152602001600020541415905092915050565b600080836001016000848152602001908152602001600020549050600081146131fa576000600182039050600060018660000180549050039050600086600001828154811061316957fe5b906000526020600020015490508087600001848154811061318657fe5b90600052602060002001819055506001830187600101600083815260200190815260200160002081905550866000018054806131be57fe5b60019003818190600052602060002001600090559055866001016000878152602001908152602001600020600090556001945050505050613200565b60009150505b92915050565b60006132128383613571565b61326b578260000182908060018154018082558091505060019003906000526020600020016000909190919091505582600001805490508360010160008481526020019081526020016000208190555060019050613270565b600090505b92915050565b600080846001016000858152602001908152602001600020549050600081141561331d5784600001604051806040016040528086815260200185815250908060018154018082558091505060019003906000526020600020906002020160009091909190915060008201518160000155602082015181600101555050846000018054905085600101600086815260200190815260200160002081905550600191505061334b565b8285600001600183038154811061333057fe5b90600052602060002090600202016001018190555060009150505b9392505050565b600073ffffffffffffffffffffffffffffffffffffffff168273ffffffffffffffffffffffffffffffffffffffff1614156133f5576040517f08c379a00000000000000000000000000000000000000000000000000000000081526004018080602001828103825260208152602001807f4552433732313a206d696e7420746f20746865207a65726f206164647265737381525060200191505060405180910390fd5b6133fe8161226a565b15613471576040517f08c379a000000000000000000000000000000000000000000000000000000000815260040180806020018281038252601c8152602001807f4552433732313a20746f6b656e20616c7265616479206d696e7465640000000081525060200191505060405180910390fd5b61347d60008383612ac5565b6134ce81600160008573ffffffffffffffffffffffffffffffffffffffff1673ffffffffffffffffffffffffffffffffffffffff168152602001908152602001600020612ae490919063ffffffff16565b506134e581836002612afe9092919063ffffffff16565b50808273ffffffffffffffffffffffffffffffffffffffff16600073ffffffffffffffffffffffffffffffffffffffff167fddf252ad1be2c89b69c2b068fc378daa952ba7f163c4a11628f55a4df523b3ef60405160405180910390a45050565b60606135558484600085613594565b90509392505050565b600080823b905060008111915050919050565b600080836001016000848152602001908152602001600020541415905092915050565b606061359f8561355e565b613611576040517f08c379a000000000000000000000000000000000000000000000000000000000815260040180806020018281038252601d8152602001807f416464726573733a2063616c6c20746f206e6f6e2d636f6e747261637400000081525060200191505060405180910390fd5b600060608673ffffffffffffffffffffffffffffffffffffffff1685876040518082805190602001908083835b60208310613661578051825260208201915060208101905060208303925061363e565b6001836020036101000a03801982511681845116808217855250505050505090500191505060006040518083038185875af1925050503d80600081146136c3576040519150601f19603f3d011682016040523d82523d6000602084013e6136c8565b606091505b509150915081156136dd578092505050613792565b6000815111156136f05780518082602001fd5b836040517f08c379a00000000000000000000000000000000000000000000000000000000081526004018080602001828103825283818151815260200191508051906020019080838360005b8381101561375757808201518184015260208101905061373c565b50505050905090810190601f1680156137845780820380516001836020036101000a031916815260200191505b509250505060405180910390fd5b949350505050565b604051806040016040528060029060208202803883398082019150509050509056fe456e756d657261626c655365743a20696e646578206f7574206f6620626f756e64734e65656420746f2068617665206e6f6e7a65726f20746f6b656e73207374616b65644552433732313a207472616e7366657220746f206e6f6e20455243373231526563656976657220696d706c656d656e74657243616e277420636c61696d207265776172647320696e207468652073616d6520626c6f636b20617320796f75207374616b654552433732313a207472616e7366657220746f20746865207a65726f206164647265737343616e277420616c7265616479206265207374616b65642077697468207374617274696e6720626c6f636b4552433732313a206f70657261746f7220717565727920666f72206e6f6e6578697374656e7420746f6b656e4552433732313a20617070726f76652063616c6c6572206973206e6f74206f776e6572206e6f7220617070726f76656420666f7220616c6c4552433732313a2062616c616e636520717565727920666f7220746865207a65726f206164647265737343616e277420616c7265616479206265207374616b656420776974682062616c616e63654552433732313a206f776e657220717565727920666f72206e6f6e6578697374656e7420746f6b656e456e756d657261626c654d61703a20696e646578206f7574206f6620626f756e64734552433732313a20617070726f76656420717565727920666f72206e6f6e6578697374656e7420746f6b656e4552433732313a207472616e73666572206f6620746f6b656e2074686174206973206e6f74206f776e4552433732314d657461646174613a2055524920717565727920666f72206e6f6e6578697374656e7420746f6b656e4552433732313a20617070726f76616c20746f2063757272656e74206f776e65724552433732313a207472616e736665722063616c6c6572206973206e6f74206f776e6572206e6f7220617070726f7665645361666545524332303a204552433230206f7065726174696f6e20646964206e6f742073756363656564a264697066735822122044a84c41b80864b5e2026d92f8bc08d550340acbcd518151a791a1314b6cdbf764736f6c63430006020033",
  "source": "// SPDX-License-Identifier: GPL-3.0\n\npragma solidity ^0.6.1;\n\nimport \"@openzeppelin/contracts/token/ERC20/IERC20.sol\";\nimport \"@openzeppelin/contracts/token/ERC20/SafeERC20.sol\";\nimport \"@openzeppelin/contracts/token/ERC721/ERC721.sol\";\nimport \"@openzeppelin/contracts/utils/Counters.sol\";\n\ncontract TokenStaker is ERC721 {\n  \n  using SafeERC20 for IERC20;\n  using Counters for Counters.Counter;\n\n  Counters.Counter private _rewardIds;\n\n  struct Stake {\n    uint256 amount;\n    uint256 startBlock;\n  }\n\n  struct Reward {\n    address owner;\n    uint256 amount;\n    uint256 blockDuration;\n  }\n\n  IERC20 public token;\n\n  mapping(address => Stake) public stakeRecords;\n  mapping(uint256 => Reward) public rewardRecords;\n  uint256 public totalStaked;\n\n  event AddStakedTokens(address user, uint256 amount);\n  event RemoveStakedTokens(address user, uint256 amount);\n  event MintedReward(address user, uint256 amount, uint256 duration);\n\n  constructor(address tokenAddress, string memory name, string memory symbol) ERC721(name, symbol) public {\n    token = IERC20(tokenAddress);\n  }\n\n  // Adds staked tokens\n  // requires user to have called approve first on the token contract for TokenStaker\n  function stake(uint256 numTokens) public {\n    require(token.balanceOf(msg.sender) >= numTokens, \"Can't stake more than you have\");\n    require(stakeRecords[msg.sender].amount == 0, \"Can't already be staked with balance\");\n    require(stakeRecords[msg.sender].startBlock == 0, \"Can't already be staked with starting block\");\n\n    // Update the mapping\n    stakeRecords[msg.sender] = Stake(\n      numTokens,\n      block.number\n    );\n    // Update the totalStaked count\n    totalStaked = totalStaked + numTokens;\n\n    // Transfer tokens to contract\n    token.safeTransferFrom(msg.sender, address(this), numTokens);\n    emit AddStakedTokens(msg.sender, numTokens);\n  }\n\n  // Removes all staked tokens\n  function removeStake() public {\n    require(stakeRecords[msg.sender].amount > 0, \"Need to have nonzero balance\");\n    require(stakeRecords[msg.sender].startBlock > 0, \"Need to have nonzero start nlock\");\n\n    uint256 numTokens = stakeRecords[msg.sender].amount;\n    \n    // Remove the mapping\n    delete stakeRecords[msg.sender];\n    // Reduce the totalStaked count\n    totalStaked = totalStaked - numTokens;\n\n    // Transfer the tokens back\n    token.safeTransfer(msg.sender, numTokens);\n    emit RemoveStakedTokens(msg.sender, numTokens);\n  }\n  \n  function getReward() public returns (uint256) {\n    require(stakeRecords[msg.sender].amount > 0, \"Need to have nonzero tokens staked\");\n    require(stakeRecords[msg.sender].startBlock < block.number, \"Can't claim rewards in the same block as you stake\");\n    uint256 numTokens = stakeRecords[msg.sender].amount;\n    uint256 startBlock = stakeRecords[msg.sender].startBlock;\n    _rewardIds.increment();\n\n    // Reset start block to be current block number\n    stakeRecords[msg.sender] = Stake(\n      numTokens,\n      block.number\n    );\n\n    // Get new reward id\n    uint256 newRewardId = _rewardIds.current();\n    // Set the new NFT's data\n    uint256 blockDuration = block.number-startBlock;\n    rewardRecords[newRewardId] = Reward(\n      msg.sender,\n      numTokens,\n      blockDuration\n    );\n\n    // Mint the new NFT\n    _safeMint(msg.sender, newRewardId);\n    emit MintedReward(msg.sender, numTokens, blockDuration);\n  }\n\n  function getStake(address staker) public view returns(uint256[2] memory) {\n    uint256[2] memory s = [stakeRecords[staker].amount, stakeRecords[staker].startBlock];\n    return s;\n  }\n\n}",
  "sourcePath": "/home/owen/GitHub/lockup-yfb/contracts/TokenStaker.sol",
  "compiler": {
    "name": "solc",
    "version": "0.6.2+commit.bacdbe57.Emscripten.clang"
  },
  "schemaVersion": "3.2.5",
  "updatedAt": "2020-09-21T04:12:39.651Z",
  "networkType": "ethereum",
  "devdoc": {
    "methods": {
      "approve(address,uint256)": {
        "details": "See {IERC721-approve}."
      },
      "balanceOf(address)": {
        "details": "See {IERC721-balanceOf}."
      },
      "baseURI()": {
        "details": "Returns the base URI set via {_setBaseURI}. This will be automatically added as a prefix in {tokenURI} to each token's URI, or to the token ID if no specific URI is set for that token ID."
      },
      "getApproved(uint256)": {
        "details": "See {IERC721-getApproved}."
      },
      "isApprovedForAll(address,address)": {
        "details": "See {IERC721-isApprovedForAll}."
      },
      "name()": {
        "details": "See {IERC721Metadata-name}."
      },
      "ownerOf(uint256)": {
        "details": "See {IERC721-ownerOf}."
      },
      "safeTransferFrom(address,address,uint256)": {
        "details": "See {IERC721-safeTransferFrom}."
      },
      "safeTransferFrom(address,address,uint256,bytes)": {
        "details": "See {IERC721-safeTransferFrom}."
      },
      "setApprovalForAll(address,bool)": {
        "details": "See {IERC721-setApprovalForAll}."
      },
      "supportsInterface(bytes4)": {
        "details": "See {IERC165-supportsInterface}.     * Time complexity O(1), guaranteed to always use less than 30 000 gas."
      },
      "symbol()": {
        "details": "See {IERC721Metadata-symbol}."
      },
      "tokenByIndex(uint256)": {
        "details": "See {IERC721Enumerable-tokenByIndex}."
      },
      "tokenOfOwnerByIndex(address,uint256)": {
        "details": "See {IERC721Enumerable-tokenOfOwnerByIndex}."
      },
      "tokenURI(uint256)": {
        "details": "See {IERC721Metadata-tokenURI}."
      },
      "totalSupply()": {
        "details": "See {IERC721Enumerable-totalSupply}."
      },
      "transferFrom(address,address,uint256)": {
        "details": "See {IERC721-transferFrom}."
      }
    }
  },
  "userdoc": {
    "methods": {}
  }
}